{
  "_format": "hh-sol-artifact-1",
  "contractName": "Marketplace",
  "sourceName": "contracts/Marketplace.sol",
  "abi": [
    {
      "anonymous": false,
      "inputs": [
        {
          "indexed": false,
          "internalType": "uint256",
          "name": "assetId",
          "type": "uint256"
        },
        {
          "indexed": false,
          "internalType": "address",
          "name": "buyer",
          "type": "address"
        }
      ],
      "name": "AssetAddedToCart",
      "type": "event"
    },
    {
      "anonymous": false,
      "inputs": [
        {
          "indexed": false,
          "internalType": "uint256",
          "name": "assetId",
          "type": "uint256"
        },
        {
          "indexed": false,
          "internalType": "string",
          "name": "name",
          "type": "string"
        },
        {
          "indexed": false,
          "internalType": "address",
          "name": "seller",
          "type": "address"
        },
        {
          "indexed": false,
          "internalType": "uint256",
          "name": "price",
          "type": "uint256"
        },
        {
          "indexed": false,
          "internalType": "string",
          "name": "metadataURI",
          "type": "string"
        },
        {
          "indexed": false,
          "internalType": "uint256",
          "name": "timestamp",
          "type": "uint256"
        },
        {
          "indexed": false,
          "internalType": "enum Marketplace.Category",
          "name": "category",
          "type": "uint8"
        }
      ],
      "name": "AssetListed",
      "type": "event"
    },
    {
      "anonymous": false,
      "inputs": [
        {
          "indexed": false,
          "internalType": "uint256",
          "name": "assetId",
          "type": "uint256"
        },
        {
          "indexed": false,
          "internalType": "address",
          "name": "buyer",
          "type": "address"
        },
        {
          "indexed": false,
          "internalType": "uint256",
          "name": "price",
          "type": "uint256"
        }
      ],
      "name": "AssetPurchased",
      "type": "event"
    },
    {
      "anonymous": false,
      "inputs": [
        {
          "indexed": false,
          "internalType": "uint256",
          "name": "assetId",
          "type": "uint256"
        },
        {
          "indexed": false,
          "internalType": "address",
          "name": "buyer",
          "type": "address"
        }
      ],
      "name": "AssetRemovedFromCart",
      "type": "event"
    },
    {
      "inputs": [
        {
          "internalType": "uint256",
          "name": "_assetId",
          "type": "uint256"
        }
      ],
      "name": "addToCart",
      "outputs": [],
      "stateMutability": "nonpayable",
      "type": "function"
    },
    {
      "inputs": [
        {
          "internalType": "uint256",
          "name": "",
          "type": "uint256"
        }
      ],
      "name": "assets",
      "outputs": [
        {
          "internalType": "uint256",
          "name": "id",
          "type": "uint256"
        },
        {
          "internalType": "string",
          "name": "name",
          "type": "string"
        },
        {
          "internalType": "address",
          "name": "seller",
          "type": "address"
        },
        {
          "internalType": "address",
          "name": "owner",
          "type": "address"
        },
        {
          "internalType": "string",
          "name": "metadataURI",
          "type": "string"
        },
        {
          "internalType": "uint256",
          "name": "price",
          "type": "uint256"
        },
        {
          "internalType": "bool",
          "name": "isListed",
          "type": "bool"
        },
        {
          "internalType": "uint256",
          "name": "timestamp",
          "type": "uint256"
        },
        {
          "internalType": "enum Marketplace.Category",
          "name": "category",
          "type": "uint8"
        }
      ],
      "stateMutability": "view",
      "type": "function"
    },
    {
      "inputs": [
        {
          "internalType": "uint256",
          "name": "_page",
          "type": "uint256"
        },
        {
          "internalType": "uint256",
          "name": "_perPage",
          "type": "uint256"
        },
        {
          "internalType": "uint256",
          "name": "_sortBy",
          "type": "uint256"
        },
        {
          "internalType": "bool",
          "name": "_hasCategory",
          "type": "bool"
        },
        {
          "internalType": "enum Marketplace.Category",
          "name": "_category",
          "type": "uint8"
        }
      ],
      "name": "getAssets",
      "outputs": [
        {
          "components": [
            {
              "internalType": "uint256",
              "name": "id",
              "type": "uint256"
            },
            {
              "internalType": "string",
              "name": "name",
              "type": "string"
            },
            {
              "internalType": "address",
              "name": "seller",
              "type": "address"
            },
            {
              "internalType": "address",
              "name": "owner",
              "type": "address"
            },
            {
              "internalType": "string",
              "name": "metadataURI",
              "type": "string"
            },
            {
              "internalType": "uint256",
              "name": "price",
              "type": "uint256"
            },
            {
              "internalType": "bool",
              "name": "isListed",
              "type": "bool"
            },
            {
              "internalType": "uint256",
              "name": "timestamp",
              "type": "uint256"
            },
            {
              "internalType": "enum Marketplace.Category",
              "name": "category",
              "type": "uint8"
            }
          ],
          "internalType": "struct Marketplace.Asset[]",
          "name": "",
          "type": "tuple[]"
        },
        {
          "internalType": "uint256",
          "name": "totalAssetsAvailable",
          "type": "uint256"
        }
      ],
      "stateMutability": "view",
      "type": "function"
    },
    {
      "inputs": [],
      "name": "getListedAssetIds",
      "outputs": [
        {
          "internalType": "uint256[]",
          "name": "",
          "type": "uint256[]"
        }
      ],
      "stateMutability": "view",
      "type": "function"
    },
    {
      "inputs": [
        {
          "internalType": "address",
          "name": "_user",
          "type": "address"
        }
      ],
      "name": "getUserCart",
      "outputs": [
        {
          "internalType": "uint256[]",
          "name": "",
          "type": "uint256[]"
        }
      ],
      "stateMutability": "view",
      "type": "function"
    },
    {
      "inputs": [
        {
          "internalType": "string",
          "name": "_name",
          "type": "string"
        },
        {
          "internalType": "string",
          "name": "_metadataURI",
          "type": "string"
        },
        {
          "internalType": "uint256",
          "name": "_price",
          "type": "uint256"
        },
        {
          "internalType": "enum Marketplace.Category",
          "name": "_category",
          "type": "uint8"
        }
      ],
      "name": "listAsset",
      "outputs": [],
      "stateMutability": "nonpayable",
      "type": "function"
    },
    {
      "inputs": [
        {
          "internalType": "uint256",
          "name": "",
          "type": "uint256"
        }
      ],
      "name": "listedAssetIds",
      "outputs": [
        {
          "internalType": "uint256",
          "name": "",
          "type": "uint256"
        }
      ],
      "stateMutability": "view",
      "type": "function"
    },
    {
      "inputs": [
        {
          "internalType": "uint256",
          "name": "_assetId",
          "type": "uint256"
        }
      ],
      "name": "purchaseAsset",
      "outputs": [],
      "stateMutability": "payable",
      "type": "function"
    },
    {
      "inputs": [],
      "name": "purchaseFromCart",
      "outputs": [],
      "stateMutability": "payable",
      "type": "function"
    },
    {
      "inputs": [
        {
          "internalType": "uint256",
          "name": "_assetId",
          "type": "uint256"
        }
      ],
      "name": "removeFromCart",
      "outputs": [],
      "stateMutability": "nonpayable",
      "type": "function"
    },
    {
      "inputs": [
        {
          "internalType": "string",
          "name": "_name",
          "type": "string"
        }
      ],
      "name": "searchByName",
      "outputs": [
        {
          "components": [
            {
              "internalType": "uint256",
              "name": "id",
              "type": "uint256"
            },
            {
              "internalType": "string",
              "name": "name",
              "type": "string"
            },
            {
              "internalType": "address",
              "name": "seller",
              "type": "address"
            },
            {
              "internalType": "address",
              "name": "owner",
              "type": "address"
            },
            {
              "internalType": "string",
              "name": "metadataURI",
              "type": "string"
            },
            {
              "internalType": "uint256",
              "name": "price",
              "type": "uint256"
            },
            {
              "internalType": "bool",
              "name": "isListed",
              "type": "bool"
            },
            {
              "internalType": "uint256",
              "name": "timestamp",
              "type": "uint256"
            },
            {
              "internalType": "enum Marketplace.Category",
              "name": "category",
              "type": "uint8"
            }
          ],
          "internalType": "struct Marketplace.Asset[]",
          "name": "",
          "type": "tuple[]"
        }
      ],
      "stateMutability": "view",
      "type": "function"
    },
    {
      "inputs": [
        {
          "internalType": "address",
          "name": "",
          "type": "address"
        },
        {
          "internalType": "uint256",
          "name": "",
          "type": "uint256"
        }
      ],
      "name": "userCart",
      "outputs": [
        {
          "internalType": "uint256",
          "name": "",
          "type": "uint256"
        }
      ],
      "stateMutability": "view",
      "type": "function"
    },
    {
      "inputs": [
        {
          "internalType": "address",
          "name": "",
          "type": "address"
        },
        {
          "internalType": "uint256",
          "name": "",
          "type": "uint256"
        }
      ],
      "name": "userPurchases",
      "outputs": [
        {
          "internalType": "uint256",
          "name": "",
          "type": "uint256"
        }
      ],
      "stateMutability": "view",
      "type": "function"
    },
    {
      "inputs": [
        {
          "internalType": "address",
          "name": "",
          "type": "address"
        },
        {
          "internalType": "uint256",
          "name": "",
          "type": "uint256"
        }
      ],
      "name": "userSales",
      "outputs": [
        {
          "internalType": "uint256",
          "name": "",
          "type": "uint256"
        }
      ],
      "stateMutability": "view",
      "type": "function"
    }
  ],
  "bytecode": "0x6080604052348015600f57600080fd5b5060016000819055506138c7806100276000396000f3fe6080604052600436106100dd5760003560e01c8063a77c414e1161007f578063cd9803bb11610059578063cd9803bb146102a3578063cf2c0334146102e0578063cf35bdd01461031d578063ddbbc35c14610362576100dd565b8063a77c414e14610212578063bdd1de421461024f578063ca29610e1461027a576100dd565b8063702742b0116100bb578063702742b0146101535780638b8a438a1461017c5780638cf92c9e146101b9578063a457e1c0146101f6576100dd565b806321571177146100e257806327fb2e8f1461010b5780634d090f4214610115575b600080fd5b3480156100ee57600080fd5b506101096004803603810190610104919061256b565b61039f565b005b610113610755565b005b34801561012157600080fd5b5061013c60048036038101906101379190612642565b610bcf565b60405161014a9291906129af565b60405180910390f35b34801561015f57600080fd5b5061017a600480360381019061017591906129df565b611580565b005b34801561018857600080fd5b506101a3600480360381019061019e9190612a38565b61171d565b6040516101b09190612a78565b60405180910390f35b3480156101c557600080fd5b506101e060048036038101906101db91906129df565b61174e565b6040516101ed9190612a78565b60405180910390f35b610210600480360381019061020b91906129df565b611772565b005b34801561021e57600080fd5b5061023960048036038101906102349190612a38565b611a3d565b6040516102469190612a78565b60405180910390f35b34801561025b57600080fd5b50610264611a6e565b6040516102719190612b42565b60405180910390f35b34801561028657600080fd5b506102a1600480360381019061029c91906129df565b611ac6565b005b3480156102af57600080fd5b506102ca60048036038101906102c59190612b64565b611c3e565b6040516102d79190612b42565b60405180910390f35b3480156102ec57600080fd5b5061030760048036038101906103029190612a38565b611cd5565b6040516103149190612a78565b60405180910390f35b34801561032957600080fd5b50610344600480360381019061033f91906129df565b611d06565b60405161035999989796959493929190612c08565b60405180910390f35b34801561036e57600080fd5b5061038960048036038101906103849190612ca3565b611ebe565b6040516103969190612cec565b60405180910390f35b60008451116103e3576040517f08c379a00000000000000000000000000000000000000000000000000000000081526004016103da90612d5a565b60405180910390fd5b6000835111610427576040517f08c379a000000000000000000000000000000000000000000000000000000000815260040161041e90612dc6565b60405180910390fd5b6000821161046a576040517f08c379a000000000000000000000000000000000000000000000000000000000815260040161046190612e32565b60405180910390fd5b600061047461224e565b90506040518061012001604052808281526020018681526020013373ffffffffffffffffffffffffffffffffffffffff168152602001600073ffffffffffffffffffffffffffffffffffffffff1681526020018581526020018481526020016001151581526020014281526020018360058111156104f5576104f46127c7565b5b8152506001600083815260200190815260200160002060008201518160000155602082015181600101908161052a919061305e565b5060408201518160020160006101000a81548173ffffffffffffffffffffffffffffffffffffffff021916908373ffffffffffffffffffffffffffffffffffffffff16021790555060608201518160030160006101000a81548173ffffffffffffffffffffffffffffffffffffffff021916908373ffffffffffffffffffffffffffffffffffffffff16021790555060808201518160040190816105ce919061305e565b5060a0820151816005015560c08201518160060160006101000a81548160ff02191690831515021790555060e082015181600701556101008201518160080160006101000a81548160ff0219169083600581111561062f5761062e6127c7565b5b02179055509050506006819080600181540180825580915050600190039060005260206000200160009091909190915055600360003373ffffffffffffffffffffffffffffffffffffffff1673ffffffffffffffffffffffffffffffffffffffff1681526020019081526020016000208190806001815401808255809150506001900390600052602060002001600090919091909150556005856040516106d6919061316c565b90815260200160405180910390208190806001815401808255809150506001900390600052602060002001600090919091909150557faa873b9f075237c867a794ca813cbde1773ae17692b8ea0303d48aad8ac1350d818633868842886040516107469796959493929190613183565b60405180910390a15050505050565b61075d612293565b6000600460003373ffffffffffffffffffffffffffffffffffffffff1673ffffffffffffffffffffffffffffffffffffffff168152602001908152602001600020905060008180549050116107e7576040517f08c379a00000000000000000000000000000000000000000000000000000000081526004016107de9061324c565b60405180910390fd5b6000805b828054905081101561092e576000600160008584815481106108105761080f61326c565b5b9060005260206000200154815260200190815260200160002090508060060160009054906101000a900460ff1661087c576040517f08c379a00000000000000000000000000000000000000000000000000000000081526004016108739061330d565b60405180910390fd5b3373ffffffffffffffffffffffffffffffffffffffff168160020160009054906101000a900473ffffffffffffffffffffffffffffffffffffffff1673ffffffffffffffffffffffffffffffffffffffff160361090e576040517f08c379a000000000000000000000000000000000000000000000000000000000815260040161090590613379565b60405180910390fd5b80600501548361091e91906133c8565b92505080806001019150506107eb565b5080341015610972576040517f08c379a000000000000000000000000000000000000000000000000000000000815260040161096990613448565b60405180910390fd5b60005b8280549050811015610b775760006001600085848154811061099a5761099961326c565b5b906000526020600020015481526020019081526020016000209050338160030160006101000a81548173ffffffffffffffffffffffffffffffffffffffff021916908373ffffffffffffffffffffffffffffffffffffffff16021790555060008160060160006101000a81548160ff02191690831515021790555060008160020160009054906101000a900473ffffffffffffffffffffffffffffffffffffffff1690508073ffffffffffffffffffffffffffffffffffffffff166108fc83600501549081150290604051600060405180830381858888f19350505050158015610a88573d6000803e3d6000fd5b50600260003373ffffffffffffffffffffffffffffffffffffffff1673ffffffffffffffffffffffffffffffffffffffff168152602001908152602001600020858481548110610adb57610ada61326c565b5b906000526020600020015490806001815401808255809150506001900390600052602060002001600090919091909150557f6011b33359ac565ce9d08448bbbe206f571e89b9b656defae19749f7b834b208858481548110610b4057610b3f61326c565b5b9060005260206000200154338460050154604051610b6093929190613468565b60405180910390a150508080600101915050610975565b50600460003373ffffffffffffffffffffffffffffffffffffffff1673ffffffffffffffffffffffffffffffffffffffff1681526020019081526020016000206000610bc391906122ec565b5050610bcd6122e2565b565b6060600080600680549050905060008167ffffffffffffffff811115610bf857610bf76123e5565b5b604051908082528060200260200182016040528015610c265781602001602082028036833780820191505090505b5090506000808303610c9557600067ffffffffffffffff811115610c4d57610c4c6123e5565b5b604051908082528060200260200182016040528015610c8657816020015b610c7361230d565b815260200190600190039081610c6b5790505b50600094509450505050611576565b60008903610ca257600a98505b60008a03610caf57600199505b60005b83811015610d8057600060068281548110610cd057610ccf61326c565b5b906000526020600020015490506000600160008381526020019081526020016000209050898015610d365750886005811115610d0f57610d0e6127c7565b5b8160080160009054906101000a900460ff166005811115610d3357610d326127c7565b5b14155b15610d42575050610d73565b81858581518110610d5657610d5561326c565b5b6020026020010181815250508380610d6d9061349f565b94505050505b8080600101915050610cb2565b5060008167ffffffffffffffff811115610d9d57610d9c6123e5565b5b604051908082528060200260200182016040528015610dcb5781602001602082028036833780820191505090505b50905060005b82811015610e2057838181518110610dec57610deb61326c565b5b6020026020010151828281518110610e0757610e0661326c565b5b6020026020010181815250508080600101915050610dd1565b5060008903610f4c5760005b82811015610f46576000600182610e4391906133c8565b90505b83811015610f385760016000848381518110610e6557610e6461326c565b5b602002602001015181526020019081526020016000206007015460016000858581518110610e9657610e9561326c565b5b60200260200101518152602001908152602001600020600701541015610f2b57828181518110610ec957610ec861326c565b5b6020026020010151838381518110610ee457610ee361326c565b5b6020026020010151848481518110610eff57610efe61326c565b5b60200260200101858481518110610f1957610f1861326c565b5b60200260200101828152508281525050505b8080600101915050610e46565b508080600101915050610e2c565b506111a0565b600189036110775760005b82811015611071576000600182610f6e91906133c8565b90505b838110156110635760016000848381518110610f9057610f8f61326c565b5b602002602001015181526020019081526020016000206005015460016000858581518110610fc157610fc061326c565b5b6020026020010151815260200190815260200160002060050154111561105657828181518110610ff457610ff361326c565b5b602002602001015183838151811061100f5761100e61326c565b5b602002602001015184848151811061102a5761102961326c565b5b602002602001018584815181106110445761104361326c565b5b60200260200101828152508281525050505b8080600101915050610f71565b508080600101915050610f57565b5061119f565b6002890361119e5760005b8281101561119c57600060018261109991906133c8565b90505b8381101561118e57600160008483815181106110bb576110ba61326c565b5b6020026020010151815260200190815260200160002060050154600160008585815181106110ec576110eb61326c565b5b602002602001015181526020019081526020016000206005015410156111815782818151811061111f5761111e61326c565b5b602002602001015183838151811061113a5761113961326c565b5b60200260200101518484815181106111555761115461326c565b5b6020026020010185848151811061116f5761116e61326c565b5b60200260200101828152508281525050505b808060010191505061109c565b508080600101915050611082565b505b5b5b60008a60018d6111b091906134e7565b6111ba919061351b565b905082811061122757600067ffffffffffffffff8111156111de576111dd6123e5565b5b60405190808252806020026020018201604052801561121757816020015b61120461230d565b8152602001906001900390816111fc5790505b5083965096505050505050611576565b60008b8261123591906133c8565b905083811115611243578390505b6000828261125191906134e7565b67ffffffffffffffff81111561126a576112696123e5565b5b6040519080825280602002602001820160405280156112a357816020015b61129061230d565b8152602001906001900390816112885790505b50905060008390505b8281101561156757600160008683815181106112cb576112ca61326c565b5b60200260200101518152602001908152602001600020604051806101200160405290816000820154815260200160018201805461130790612e81565b80601f016020809104026020016040519081016040528092919081815260200182805461133390612e81565b80156113805780601f1061135557610100808354040283529160200191611380565b820191906000526020600020905b81548152906001019060200180831161136357829003601f168201915b505050505081526020016002820160009054906101000a900473ffffffffffffffffffffffffffffffffffffffff1673ffffffffffffffffffffffffffffffffffffffff1673ffffffffffffffffffffffffffffffffffffffff1681526020016003820160009054906101000a900473ffffffffffffffffffffffffffffffffffffffff1673ffffffffffffffffffffffffffffffffffffffff1673ffffffffffffffffffffffffffffffffffffffff16815260200160048201805461144590612e81565b80601f016020809104026020016040519081016040528092919081815260200182805461147190612e81565b80156114be5780601f10611493576101008083540402835291602001916114be565b820191906000526020600020905b8154815290600101906020018083116114a157829003601f168201915b50505050508152602001600582015481526020016006820160009054906101000a900460ff16151515158152602001600782015481526020016008820160009054906101000a900460ff16600581111561151b5761151a6127c7565b5b600581111561152d5761152c6127c7565b5b8152505082858361153e91906134e7565b8151811061154f5761154e61326c565b5b602002602001018190525080806001019150506112ac565b50808598509850505050505050505b9550959350505050565b60006001600083815260200190815260200160002090508060060160009054906101000a900460ff166115e8576040517f08c379a00000000000000000000000000000000000000000000000000000000081526004016115df906135a9565b60405180910390fd5b3373ffffffffffffffffffffffffffffffffffffffff168160020160009054906101000a900473ffffffffffffffffffffffffffffffffffffffff1673ffffffffffffffffffffffffffffffffffffffff160361167a576040517f08c379a00000000000000000000000000000000000000000000000000000000081526004016116719061363b565b60405180910390fd5b600460003373ffffffffffffffffffffffffffffffffffffffff1673ffffffffffffffffffffffffffffffffffffffff1681526020019081526020016000208290806001815401808255809150506001900390600052602060002001600090919091909150557f9d9f8fcef47ab1dd5cf9369891f660958457da888fcab465c59d8428d8d71a55823360405161171192919061365b565b60405180910390a15050565b6003602052816000526040600020818154811061173957600080fd5b90600052602060002001600091509150505481565b6006818154811061175e57600080fd5b906000526020600020016000915090505481565b61177a612293565b60006001600083815260200190815260200160002090508060060160009054906101000a900460ff166117e2576040517f08c379a00000000000000000000000000000000000000000000000000000000081526004016117d9906135a9565b60405180910390fd5b8060050154341015611829576040517f08c379a000000000000000000000000000000000000000000000000000000000815260040161182090613448565b60405180910390fd5b3373ffffffffffffffffffffffffffffffffffffffff168160020160009054906101000a900473ffffffffffffffffffffffffffffffffffffffff1673ffffffffffffffffffffffffffffffffffffffff16036118bb576040517f08c379a00000000000000000000000000000000000000000000000000000000081526004016118b290613379565b60405180910390fd5b60008160020160009054906101000a900473ffffffffffffffffffffffffffffffffffffffff169050338260030160006101000a81548173ffffffffffffffffffffffffffffffffffffffff021916908373ffffffffffffffffffffffffffffffffffffffff16021790555060008260060160006101000a81548160ff0219169083151502179055508073ffffffffffffffffffffffffffffffffffffffff166108fc349081150290604051600060405180830381858888f1935050505015801561198a573d6000803e3d6000fd5b50600260003373ffffffffffffffffffffffffffffffffffffffff1673ffffffffffffffffffffffffffffffffffffffff1681526020019081526020016000208390806001815401808255809150506001900390600052602060002001600090919091909150557f6011b33359ac565ce9d08448bbbe206f571e89b9b656defae19749f7b834b20883338460050154604051611a2893929190613468565b60405180910390a15050611a3a6122e2565b50565b60046020528160005260406000208181548110611a5957600080fd5b90600052602060002001600091509150505481565b60606006805480602002602001604051908101604052809291908181526020018280548015611abc57602002820191906000526020600020905b815481526020019060010190808311611aa8575b5050505050905090565b6000600460003373ffffffffffffffffffffffffffffffffffffffff1673ffffffffffffffffffffffffffffffffffffffff168152602001908152602001600020905060005b8180549050811015611bff5782828281548110611b2c57611b2b61326c565b5b906000526020600020015403611bf2578160018380549050611b4e91906134e7565b81548110611b5f57611b5e61326c565b5b9060005260206000200154828281548110611b7d57611b7c61326c565b5b906000526020600020018190555081805480611b9c57611b9b613684565b5b600190038181906000526020600020016000905590557f385465af0c9b9671d692785103097f82ab37c2adf55c2f4446dab6850adf0f5c8333604051611be392919061365b565b60405180910390a15050611c3b565b8080600101915050611b0c565b506040517f08c379a0000000000000000000000000000000000000000000000000000000008152600401611c32906136ff565b60405180910390fd5b50565b6060600460008373ffffffffffffffffffffffffffffffffffffffff1673ffffffffffffffffffffffffffffffffffffffff168152602001908152602001600020805480602002602001604051908101604052809291908181526020018280548015611cc957602002820191906000526020600020905b815481526020019060010190808311611cb5575b50505050509050919050565b60026020528160005260406000208181548110611cf157600080fd5b90600052602060002001600091509150505481565b6001602052806000526040600020600091509050806000015490806001018054611d2f90612e81565b80601f0160208091040260200160405190810160405280929190818152602001828054611d5b90612e81565b8015611da85780601f10611d7d57610100808354040283529160200191611da8565b820191906000526020600020905b815481529060010190602001808311611d8b57829003601f168201915b5050505050908060020160009054906101000a900473ffffffffffffffffffffffffffffffffffffffff16908060030160009054906101000a900473ffffffffffffffffffffffffffffffffffffffff1690806004018054611e0990612e81565b80601f0160208091040260200160405190810160405280929190818152602001828054611e3590612e81565b8015611e825780601f10611e5757610100808354040283529160200191611e82565b820191906000526020600020905b815481529060010190602001808311611e6557829003601f168201915b5050505050908060050154908060060160009054906101000a900460ff16908060070154908060080160009054906101000a900460ff16905089565b60606000600583604051611ed2919061316c565b9081526020016040518091039020805480602002602001604051908101604052809291908181526020018280548015611f2a57602002820191906000526020600020905b815481526020019060010190808311611f16575b5050505050905060008151905060008167ffffffffffffffff811115611f5357611f526123e5565b5b604051908082528060200260200182016040528015611f8c57816020015b611f7961230d565b815260200190600190039081611f715790505b50905060005b828110156122425760016000858381518110611fb157611fb061326c565b5b602002602001015181526020019081526020016000206040518061012001604052908160008201548152602001600182018054611fed90612e81565b80601f016020809104026020016040519081016040528092919081815260200182805461201990612e81565b80156120665780601f1061203b57610100808354040283529160200191612066565b820191906000526020600020905b81548152906001019060200180831161204957829003601f168201915b505050505081526020016002820160009054906101000a900473ffffffffffffffffffffffffffffffffffffffff1673ffffffffffffffffffffffffffffffffffffffff1673ffffffffffffffffffffffffffffffffffffffff1681526020016003820160009054906101000a900473ffffffffffffffffffffffffffffffffffffffff1673ffffffffffffffffffffffffffffffffffffffff1673ffffffffffffffffffffffffffffffffffffffff16815260200160048201805461212b90612e81565b80601f016020809104026020016040519081016040528092919081815260200182805461215790612e81565b80156121a45780601f10612179576101008083540402835291602001916121a4565b820191906000526020600020905b81548152906001019060200180831161218757829003601f168201915b50505050508152602001600582015481526020016006820160009054906101000a900460ff16151515158152602001600782015481526020016008820160009054906101000a900460ff166005811115612201576122006127c7565b5b6005811115612213576122126127c7565b5b8152505082828151811061222a5761222961326c565b5b60200260200101819052508080600101915050611f92565b50809350505050919050565b60006402540be40042334360405160200161226b93929190613788565b6040516020818303038152906040528051906020012060001c61228e91906137f4565b905090565b6002600054036122d8576040517f08c379a00000000000000000000000000000000000000000000000000000000081526004016122cf90613871565b60405180910390fd5b6002600081905550565b6001600081905550565b508054600082559060005260206000209081019061230a9190612399565b50565b6040518061012001604052806000815260200160608152602001600073ffffffffffffffffffffffffffffffffffffffff168152602001600073ffffffffffffffffffffffffffffffffffffffff16815260200160608152602001600081526020016000151581526020016000815260200160006005811115612393576123926127c7565b5b81525090565b5b808211156123b257600081600090555060010161239a565b5090565b6000604051905090565b600080fd5b600080fd5b600080fd5b600080fd5b6000601f19601f8301169050919050565b7f4e487b7100000000000000000000000000000000000000000000000000000000600052604160045260246000fd5b61241d826123d4565b810181811067ffffffffffffffff8211171561243c5761243b6123e5565b5b80604052505050565b600061244f6123b6565b905061245b8282612414565b919050565b600067ffffffffffffffff82111561247b5761247a6123e5565b5b612484826123d4565b9050602081019050919050565b82818337600083830152505050565b60006124b36124ae84612460565b612445565b9050828152602081018484840111156124cf576124ce6123cf565b5b6124da848285612491565b509392505050565b600082601f8301126124f7576124f66123ca565b5b81356125078482602086016124a0565b91505092915050565b6000819050919050565b61252381612510565b811461252e57600080fd5b50565b6000813590506125408161251a565b92915050565b6006811061255357600080fd5b50565b60008135905061256581612546565b92915050565b60008060008060808587031215612585576125846123c0565b5b600085013567ffffffffffffffff8111156125a3576125a26123c5565b5b6125af878288016124e2565b945050602085013567ffffffffffffffff8111156125d0576125cf6123c5565b5b6125dc878288016124e2565b93505060406125ed87828801612531565b92505060606125fe87828801612556565b91505092959194509250565b60008115159050919050565b61261f8161260a565b811461262a57600080fd5b50565b60008135905061263c81612616565b92915050565b600080600080600060a0868803121561265e5761265d6123c0565b5b600061266c88828901612531565b955050602061267d88828901612531565b945050604061268e88828901612531565b935050606061269f8882890161262d565b92505060806126b088828901612556565b9150509295509295909350565b600081519050919050565b600082825260208201905092915050565b6000819050602082019050919050565b6126f281612510565b82525050565b600081519050919050565b600082825260208201905092915050565b60005b83811015612732578082015181840152602081019050612717565b60008484015250505050565b6000612749826126f8565b6127538185612703565b9350612763818560208601612714565b61276c816123d4565b840191505092915050565b600073ffffffffffffffffffffffffffffffffffffffff82169050919050565b60006127a282612777565b9050919050565b6127b281612797565b82525050565b6127c18161260a565b82525050565b7f4e487b7100000000000000000000000000000000000000000000000000000000600052602160045260246000fd5b60068110612807576128066127c7565b5b50565b6000819050612818826127f6565b919050565b60006128288261280a565b9050919050565b6128388161281d565b82525050565b60006101208301600083015161285760008601826126e9565b506020830151848203602086015261286f828261273e565b915050604083015161288460408601826127a9565b50606083015161289760608601826127a9565b50608083015184820360808601526128af828261273e565b91505060a08301516128c460a08601826126e9565b5060c08301516128d760c08601826127b8565b5060e08301516128ea60e08601826126e9565b506101008301516128ff61010086018261282f565b508091505092915050565b6000612916838361283e565b905092915050565b6000602082019050919050565b6000612936826126bd565b61294081856126c8565b935083602082028501612952856126d9565b8060005b8581101561298e578484038952815161296f858261290a565b945061297a8361291e565b925060208a01995050600181019050612956565b50829750879550505050505092915050565b6129a981612510565b82525050565b600060408201905081810360008301526129c9818561292b565b90506129d860208301846129a0565b9392505050565b6000602082840312156129f5576129f46123c0565b5b6000612a0384828501612531565b91505092915050565b612a1581612797565b8114612a2057600080fd5b50565b600081359050612a3281612a0c565b92915050565b60008060408385031215612a4f57612a4e6123c0565b5b6000612a5d85828601612a23565b9250506020612a6e85828601612531565b9150509250929050565b6000602082019050612a8d60008301846129a0565b92915050565b600081519050919050565b600082825260208201905092915050565b6000819050602082019050919050565b6000612acb83836126e9565b60208301905092915050565b6000602082019050919050565b6000612aef82612a93565b612af98185612a9e565b9350612b0483612aaf565b8060005b83811015612b35578151612b1c8882612abf565b9750612b2783612ad7565b925050600181019050612b08565b5085935050505092915050565b60006020820190508181036000830152612b5c8184612ae4565b905092915050565b600060208284031215612b7a57612b796123c0565b5b6000612b8884828501612a23565b91505092915050565b600082825260208201905092915050565b6000612bad826126f8565b612bb78185612b91565b9350612bc7818560208601612714565b612bd0816123d4565b840191505092915050565b612be481612797565b82525050565b612bf38161260a565b82525050565b612c028161281d565b82525050565b600061012082019050612c1e600083018c6129a0565b8181036020830152612c30818b612ba2565b9050612c3f604083018a612bdb565b612c4c6060830189612bdb565b8181036080830152612c5e8188612ba2565b9050612c6d60a08301876129a0565b612c7a60c0830186612bea565b612c8760e08301856129a0565b612c95610100830184612bf9565b9a9950505050505050505050565b600060208284031215612cb957612cb86123c0565b5b600082013567ffffffffffffffff811115612cd757612cd66123c5565b5b612ce3848285016124e2565b91505092915050565b60006020820190508181036000830152612d06818461292b565b905092915050565b7f4e616d652063616e6e6f7420626520656d707479000000000000000000000000600082015250565b6000612d44601483612b91565b9150612d4f82612d0e565b602082019050919050565b60006020820190508181036000830152612d7381612d37565b9050919050565b7f4d65746164617461205552492063616e6e6f7420626520656d70747900000000600082015250565b6000612db0601c83612b91565b9150612dbb82612d7a565b602082019050919050565b60006020820190508181036000830152612ddf81612da3565b9050919050565b7f5072696365206d7573742062652067726561746572207468616e203000000000600082015250565b6000612e1c601c83612b91565b9150612e2782612de6565b602082019050919050565b60006020820190508181036000830152612e4b81612e0f565b9050919050565b7f4e487b7100000000000000000000000000000000000000000000000000000000600052602260045260246000fd5b60006002820490506001821680612e9957607f821691505b602082108103612eac57612eab612e52565b5b50919050565b60008190508160005260206000209050919050565b60006020601f8301049050919050565b600082821b905092915050565b600060088302612f147fffffffffffffffffffffffffffffffffffffffffffffffffffffffffffffffff82612ed7565b612f1e8683612ed7565b95508019841693508086168417925050509392505050565b6000819050919050565b6000612f5b612f56612f5184612510565b612f36565b612510565b9050919050565b6000819050919050565b612f7583612f40565b612f89612f8182612f62565b848454612ee4565b825550505050565b600090565b612f9e612f91565b612fa9818484612f6c565b505050565b5b81811015612fcd57612fc2600082612f96565b600181019050612faf565b5050565b601f82111561301257612fe381612eb2565b612fec84612ec7565b81016020851015612ffb578190505b61300f61300785612ec7565b830182612fae565b50505b505050565b600082821c905092915050565b600061303560001984600802613017565b1980831691505092915050565b600061304e8383613024565b9150826002028217905092915050565b613067826126f8565b67ffffffffffffffff8111156130805761307f6123e5565b5b61308a8254612e81565b613095828285612fd1565b600060209050601f8311600181146130c857600084156130b6578287015190505b6130c08582613042565b865550613128565b601f1984166130d686612eb2565b60005b828110156130fe578489015182556001820191506020850194506020810190506130d9565b8683101561311b5784890151613117601f891682613024565b8355505b6001600288020188555050505b505050505050565b600081905092915050565b6000613146826126f8565b6131508185613130565b9350613160818560208601612714565b80840191505092915050565b6000613178828461313b565b915081905092915050565b600060e082019050613198600083018a6129a0565b81810360208301526131aa8189612ba2565b90506131b96040830188612bdb565b6131c660608301876129a0565b81810360808301526131d88186612ba2565b90506131e760a08301856129a0565b6131f460c0830184612bf9565b98975050505050505050565b7f4361727420697320656d70747900000000000000000000000000000000000000600082015250565b6000613236600d83612b91565b915061324182613200565b602082019050919050565b6000602082019050818103600083015261326581613229565b9050919050565b7f4e487b7100000000000000000000000000000000000000000000000000000000600052603260045260246000fd5b7f536f6d652061737365747320617265206e6f206c6f6e67657220617661696c6160008201527f626c650000000000000000000000000000000000000000000000000000000000602082015250565b60006132f7602383612b91565b91506133028261329b565b604082019050919050565b60006020820190508181036000830152613326816132ea565b9050919050565b7f43616e6e6f742062757920796f7572206f776e20617373657400000000000000600082015250565b6000613363601983612b91565b915061336e8261332d565b602082019050919050565b6000602082019050818103600083015261339281613356565b9050919050565b7f4e487b7100000000000000000000000000000000000000000000000000000000600052601160045260246000fd5b60006133d382612510565b91506133de83612510565b92508282019050808211156133f6576133f5613399565b5b92915050565b7f496e73756666696369656e742066756e64730000000000000000000000000000600082015250565b6000613432601283612b91565b915061343d826133fc565b602082019050919050565b6000602082019050818103600083015261346181613425565b9050919050565b600060608201905061347d60008301866129a0565b61348a6020830185612bdb565b61349760408301846129a0565b949350505050565b60006134aa82612510565b91507fffffffffffffffffffffffffffffffffffffffffffffffffffffffffffffffff82036134dc576134db613399565b5b600182019050919050565b60006134f282612510565b91506134fd83612510565b925082820390508181111561351557613514613399565b5b92915050565b600061352682612510565b915061353183612510565b925082820261353f81612510565b9150828204841483151761355657613555613399565b5b5092915050565b7f4173736574206973206e6f74206c697374656420666f722073616c6500000000600082015250565b6000613593601c83612b91565b915061359e8261355d565b602082019050919050565b600060208201905081810360008301526135c281613586565b9050919050565b7f43616e6e6f742061646420796f7572206f776e20617373657420746f2063617260008201527f7400000000000000000000000000000000000000000000000000000000000000602082015250565b6000613625602183612b91565b9150613630826135c9565b604082019050919050565b6000602082019050818103600083015261365481613618565b9050919050565b600060408201905061367060008301856129a0565b61367d6020830184612bdb565b9392505050565b7f4e487b7100000000000000000000000000000000000000000000000000000000600052603160045260246000fd5b7f4173736574206e6f7420666f756e6420696e2063617274000000000000000000600082015250565b60006136e9601783612b91565b91506136f4826136b3565b602082019050919050565b60006020820190508181036000830152613718816136dc565b9050919050565b6000819050919050565b61373a61373582612510565b61371f565b82525050565b60008160601b9050919050565b600061375882613740565b9050919050565b600061376a8261374d565b9050919050565b61378261377d82612797565b61375f565b82525050565b60006137948286613729565b6020820191506137a48285613771565b6014820191506137b48284613729565b602082019150819050949350505050565b7f4e487b7100000000000000000000000000000000000000000000000000000000600052601260045260246000fd5b60006137ff82612510565b915061380a83612510565b92508261381a576138196137c5565b5b828206905092915050565b7f5265656e7472616e637947756172643a207265656e7472616e742063616c6c00600082015250565b600061385b601f83612b91565b915061386682613825565b602082019050919050565b6000602082019050818103600083015261388a8161384e565b905091905056fea2646970667358221220566b8ed88fa6ff08f4238cf4ccba076a1f552f40a8709973a1ae63eaa22178ed64736f6c634300081c0033",
  "linkReferences": {},
  "deployedLinkReferences": {}
}