{
    "_format": "hh-sol-artifact-1",
    "contractName": "Marketplace",
    "sourceName": "contracts/Marketplace.sol",
    "abi": [
        {
            "anonymous": false,
            "inputs": [
                {
                    "indexed": false,
                    "internalType": "uint256",
                    "name": "assetId",
                    "type": "uint256"
                },
                {
                    "indexed": false,
                    "internalType": "address",
                    "name": "buyer",
                    "type": "address"
                }
            ],
            "name": "AssetAddedToCart",
            "type": "event"
        },
        {
            "anonymous": false,
            "inputs": [
                {
                    "indexed": false,
                    "internalType": "uint256",
                    "name": "assetId",
                    "type": "uint256"
                },
                {
                    "indexed": false,
                    "internalType": "address",
                    "name": "seller",
                    "type": "address"
                },
                {
                    "indexed": false,
                    "internalType": "uint256",
                    "name": "price",
                    "type": "uint256"
                },
                {
                    "indexed": false,
                    "internalType": "string",
                    "name": "metadataURI",
                    "type": "string"
                },
                {
                    "indexed": false,
                    "internalType": "uint256",
                    "name": "timestamp",
                    "type": "uint256"
                },
                {
                    "indexed": false,
                    "internalType": "enum Marketplace.Category",
                    "name": "category",
                    "type": "uint8"
                }
            ],
            "name": "AssetListed",
            "type": "event"
        },
        {
            "anonymous": false,
            "inputs": [
                {
                    "indexed": false,
                    "internalType": "uint256",
                    "name": "assetId",
                    "type": "uint256"
                },
                {
                    "indexed": false,
                    "internalType": "address",
                    "name": "buyer",
                    "type": "address"
                },
                {
                    "indexed": false,
                    "internalType": "uint256",
                    "name": "price",
                    "type": "uint256"
                }
            ],
            "name": "AssetPurchased",
            "type": "event"
        },
        {
            "anonymous": false,
            "inputs": [
                {
                    "indexed": false,
                    "internalType": "uint256",
                    "name": "assetId",
                    "type": "uint256"
                },
                {
                    "indexed": false,
                    "internalType": "address",
                    "name": "buyer",
                    "type": "address"
                }
            ],
            "name": "AssetRemovedFromCart",
            "type": "event"
        },
        {
            "inputs": [
                {
                    "internalType": "uint256",
                    "name": "_assetId",
                    "type": "uint256"
                }
            ],
            "name": "addToCart",
            "outputs": [],
            "stateMutability": "nonpayable",
            "type": "function"
        },
        {
            "inputs": [
                {
                    "internalType": "uint256",
                    "name": "",
                    "type": "uint256"
                }
            ],
            "name": "assets",
            "outputs": [
                {
                    "internalType": "uint256",
                    "name": "id",
                    "type": "uint256"
                },
                {
                    "internalType": "address",
                    "name": "seller",
                    "type": "address"
                },
                {
                    "internalType": "address",
                    "name": "owner",
                    "type": "address"
                },
                {
                    "internalType": "string",
                    "name": "metadataURI",
                    "type": "string"
                },
                {
                    "internalType": "uint256",
                    "name": "price",
                    "type": "uint256"
                },
                {
                    "internalType": "bool",
                    "name": "isListed",
                    "type": "bool"
                },
                {
                    "internalType": "uint256",
                    "name": "timestamp",
                    "type": "uint256"
                },
                {
                    "internalType": "enum Marketplace.Category",
                    "name": "category",
                    "type": "uint8"
                }
            ],
            "stateMutability": "view",
            "type": "function"
        },
        {
            "inputs": [
                {
                    "internalType": "uint256",
                    "name": "_page",
                    "type": "uint256"
                },
                {
                    "internalType": "uint256",
                    "name": "_perPage",
                    "type": "uint256"
                },
                {
                    "internalType": "uint256",
                    "name": "_sortBy",
                    "type": "uint256"
                },
                {
                    "internalType": "enum Marketplace.Category",
                    "name": "_category",
                    "type": "uint8"
                }
            ],
            "name": "getAssets",
            "outputs": [
                {
                    "components": [
                        {
                            "internalType": "uint256",
                            "name": "id",
                            "type": "uint256"
                        },
                        {
                            "internalType": "address",
                            "name": "seller",
                            "type": "address"
                        },
                        {
                            "internalType": "address",
                            "name": "owner",
                            "type": "address"
                        },
                        {
                            "internalType": "string",
                            "name": "metadataURI",
                            "type": "string"
                        },
                        {
                            "internalType": "uint256",
                            "name": "price",
                            "type": "uint256"
                        },
                        {
                            "internalType": "bool",
                            "name": "isListed",
                            "type": "bool"
                        },
                        {
                            "internalType": "uint256",
                            "name": "timestamp",
                            "type": "uint256"
                        },
                        {
                            "internalType": "enum Marketplace.Category",
                            "name": "category",
                            "type": "uint8"
                        }
                    ],
                    "internalType": "struct Marketplace.Asset[]",
                    "name": "",
                    "type": "tuple[]"
                }
            ],
            "stateMutability": "view",
            "type": "function"
        },
        {
            "inputs": [
                {
                    "internalType": "address",
                    "name": "_user",
                    "type": "address"
                }
            ],
            "name": "getUserCart",
            "outputs": [
                {
                    "internalType": "uint256[]",
                    "name": "",
                    "type": "uint256[]"
                }
            ],
            "stateMutability": "view",
            "type": "function"
        },
        {
            "inputs": [
                {
                    "internalType": "string",
                    "name": "_metadataURI",
                    "type": "string"
                },
                {
                    "internalType": "uint256",
                    "name": "_price",
                    "type": "uint256"
                },
                {
                    "internalType": "enum Marketplace.Category",
                    "name": "_category",
                    "type": "uint8"
                }
            ],
            "name": "listAsset",
            "outputs": [],
            "stateMutability": "nonpayable",
            "type": "function"
        },
        {
            "inputs": [
                {
                    "internalType": "uint256",
                    "name": "_assetId",
                    "type": "uint256"
                }
            ],
            "name": "purchaseAsset",
            "outputs": [],
            "stateMutability": "payable",
            "type": "function"
        },
        {
            "inputs": [],
            "name": "purchaseFromCart",
            "outputs": [],
            "stateMutability": "payable",
            "type": "function"
        },
        {
            "inputs": [
                {
                    "internalType": "uint256",
                    "name": "_assetId",
                    "type": "uint256"
                }
            ],
            "name": "removeFromCart",
            "outputs": [],
            "stateMutability": "nonpayable",
            "type": "function"
        },
        {
            "inputs": [
                {
                    "internalType": "address",
                    "name": "",
                    "type": "address"
                },
                {
                    "internalType": "uint256",
                    "name": "",
                    "type": "uint256"
                }
            ],
            "name": "userCart",
            "outputs": [
                {
                    "internalType": "uint256",
                    "name": "",
                    "type": "uint256"
                }
            ],
            "stateMutability": "view",
            "type": "function"
        },
        {
            "inputs": [
                {
                    "internalType": "address",
                    "name": "",
                    "type": "address"
                },
                {
                    "internalType": "uint256",
                    "name": "",
                    "type": "uint256"
                }
            ],
            "name": "userPurchases",
            "outputs": [
                {
                    "internalType": "uint256",
                    "name": "",
                    "type": "uint256"
                }
            ],
            "stateMutability": "view",
            "type": "function"
        },
        {
            "inputs": [
                {
                    "internalType": "address",
                    "name": "",
                    "type": "address"
                },
                {
                    "internalType": "uint256",
                    "name": "",
                    "type": "uint256"
                }
            ],
            "name": "userSales",
            "outputs": [
                {
                    "internalType": "uint256",
                    "name": "",
                    "type": "uint256"
                }
            ],
            "stateMutability": "view",
            "type": "function"
        }
    ],
    "bytecode": "0x60806040526000600155348015601457600080fd5b506001600081905550612d548061002c6000396000f3fe60806040526004361061009c5760003560e01c8063a457e1c011610064578063a457e1c014610177578063a77c414e14610193578063ca29610e146101d0578063cd9803bb146101f9578063cf2c033414610236578063cf35bdd0146102735761009c565b806313b06915146100a157806327fb2e8f146100ca5780632870f4a9146100d4578063702742b0146101115780638b8a438a1461013a575b600080fd5b3480156100ad57600080fd5b506100c860048036038101906100c39190611ced565b6102b7565b005b6100d26105ae565b005b3480156100e057600080fd5b506100fb60048036038101906100f69190611d5c565b610a28565b6040516101089190612096565b60405180910390f35b34801561011d57600080fd5b50610138600480360381019061013391906120b8565b6111e8565b005b34801561014657600080fd5b50610161600480360381019061015c9190612111565b611385565b60405161016e9190612160565b60405180910390f35b610191600480360381019061018c91906120b8565b6113b6565b005b34801561019f57600080fd5b506101ba60048036038101906101b59190612111565b611681565b6040516101c79190612160565b60405180910390f35b3480156101dc57600080fd5b506101f760048036038101906101f291906120b8565b6116b2565b005b34801561020557600080fd5b50610220600480360381019061021b919061217b565b61182a565b60405161022d9190612257565b60405180910390f35b34801561024257600080fd5b5061025d60048036038101906102589190612111565b6118c1565b60405161026a9190612160565b60405180910390f35b34801561027f57600080fd5b5061029a600480360381019061029591906120b8565b6118f2565b6040516102ae9897969594939291906122f0565b60405180910390f35b60008351116102fb576040517f08c379a00000000000000000000000000000000000000000000000000000000081526004016102f2906123c1565b60405180910390fd5b6000821161033e576040517f08c379a00000000000000000000000000000000000000000000000000000000081526004016103359061242d565b60405180910390fd5b600160008154809291906103519061247c565b919050555060405180610100016040528060015481526020013373ffffffffffffffffffffffffffffffffffffffff168152602001600073ffffffffffffffffffffffffffffffffffffffff1681526020018481526020018381526020016001151581526020014281526020018260058111156103d1576103d0611ed9565b5b8152506002600060015481526020019081526020016000206000820151816000015560208201518160010160006101000a81548173ffffffffffffffffffffffffffffffffffffffff021916908373ffffffffffffffffffffffffffffffffffffffff16021790555060408201518160020160006101000a81548173ffffffffffffffffffffffffffffffffffffffff021916908373ffffffffffffffffffffffffffffffffffffffff160217905550606082015181600301908161049691906126d0565b506080820151816004015560a08201518160050160006101000a81548160ff02191690831515021790555060c0820151816006015560e08201518160070160006101000a81548160ff021916908360058111156104f6576104f5611ed9565b5b0217905550905050600460003373ffffffffffffffffffffffffffffffffffffffff1673ffffffffffffffffffffffffffffffffffffffff16815260200190815260200160002060015490806001815401808255809150506001900390600052602060002001600090919091909150557fc285f23b0c9922560ca2625f29a349f6cdf471367e8343034617b8023553d6c760015433848642866040516105a1969594939291906127a2565b60405180910390a1505050565b6105b6611a1c565b6000600560003373ffffffffffffffffffffffffffffffffffffffff1673ffffffffffffffffffffffffffffffffffffffff16815260200190815260200160002090506000818054905011610640576040517f08c379a000000000000000000000000000000000000000000000000000000000815260040161063790612856565b60405180910390fd5b6000805b82805490508110156107875760006002600085848154811061066957610668612876565b5b9060005260206000200154815260200190815260200160002090508060050160009054906101000a900460ff166106d5576040517f08c379a00000000000000000000000000000000000000000000000000000000081526004016106cc90612917565b60405180910390fd5b3373ffffffffffffffffffffffffffffffffffffffff168160010160009054906101000a900473ffffffffffffffffffffffffffffffffffffffff1673ffffffffffffffffffffffffffffffffffffffff1603610767576040517f08c379a000000000000000000000000000000000000000000000000000000000815260040161075e90612983565b60405180910390fd5b80600401548361077791906129a3565b9250508080600101915050610644565b50803410156107cb576040517f08c379a00000000000000000000000000000000000000000000000000000000081526004016107c290612a23565b60405180910390fd5b60005b82805490508110156109d0576000600260008584815481106107f3576107f2612876565b5b906000526020600020015481526020019081526020016000209050338160020160006101000a81548173ffffffffffffffffffffffffffffffffffffffff021916908373ffffffffffffffffffffffffffffffffffffffff16021790555060008160050160006101000a81548160ff02191690831515021790555060008160010160009054906101000a900473ffffffffffffffffffffffffffffffffffffffff1690508073ffffffffffffffffffffffffffffffffffffffff166108fc83600401549081150290604051600060405180830381858888f193505050501580156108e1573d6000803e3d6000fd5b50600360003373ffffffffffffffffffffffffffffffffffffffff1673ffffffffffffffffffffffffffffffffffffffff16815260200190815260200160002085848154811061093457610933612876565b5b906000526020600020015490806001815401808255809150506001900390600052602060002001600090919091909150557f6011b33359ac565ce9d08448bbbe206f571e89b9b656defae19749f7b834b20885848154811061099957610998612876565b5b90600052602060002001543384600401546040516109b993929190612a43565b60405180910390a1505080806001019150506107ce565b50600560003373ffffffffffffffffffffffffffffffffffffffff1673ffffffffffffffffffffffffffffffffffffffff1681526020019081526020016000206000610a1c9190611a75565b5050610a26611a6b565b565b6060600080600190505b6001548111610ad857836005811115610a4e57610a4d611ed9565b5b6002600083815260200190815260200160002060070160009054906101000a900460ff166005811115610a8457610a83611ed9565b5b148015610ab157506002600082815260200190815260200160002060050160009054906101000a900460ff165b15610ac5578180610ac19061247c565b9250505b8080610ad09061247c565b915050610a32565b5060008167ffffffffffffffff811115610af557610af4611b67565b5b604051908082528060200260200182016040528015610b2e57816020015b610b1b611a96565b815260200190600190039081610b135790505b509050600080600190505b6001548111610dce57856005811115610b5557610b54611ed9565b5b6002600083815260200190815260200160002060070160009054906101000a900460ff166005811115610b8b57610b8a611ed9565b5b148015610bb857506002600082815260200190815260200160002060050160009054906101000a900460ff165b15610dbb576002600082815260200190815260200160002060405180610100016040529081600082015481526020016001820160009054906101000a900473ffffffffffffffffffffffffffffffffffffffff1673ffffffffffffffffffffffffffffffffffffffff1673ffffffffffffffffffffffffffffffffffffffff1681526020016002820160009054906101000a900473ffffffffffffffffffffffffffffffffffffffff1673ffffffffffffffffffffffffffffffffffffffff1673ffffffffffffffffffffffffffffffffffffffff168152602001600382018054610ca2906124f3565b80601f0160208091040260200160405190810160405280929190818152602001828054610cce906124f3565b8015610d1b5780601f10610cf057610100808354040283529160200191610d1b565b820191906000526020600020905b815481529060010190602001808311610cfe57829003601f168201915b50505050508152602001600482015481526020016005820160009054906101000a900460ff16151515158152602001600682015481526020016007820160009054906101000a900460ff166005811115610d7857610d77611ed9565b5b6005811115610d8a57610d89611ed9565b5b81525050838381518110610da157610da0612876565b5b60200260200101819052508180610db79061247c565b9250505b8080610dc69061247c565b915050610b39565b5060008603610ed45760005b83811015610ece576000600182610df191906129a3565b90505b84811015610ec057838181518110610e0f57610e0e612876565b5b602002602001015160c00151848381518110610e2e57610e2d612876565b5b602002602001015160c001511015610eb357838181518110610e5357610e52612876565b5b6020026020010151848381518110610e6e57610e6d612876565b5b6020026020010151858481518110610e8957610e88612876565b5b60200260200101868481518110610ea357610ea2612876565b5b6020026020010182905282905250505b8080600101915050610df4565b508080600101915050610dda565b506110dc565b60018603610fd95760005b83811015610fd3576000600182610ef691906129a3565b90505b84811015610fc557838181518110610f1457610f13612876565b5b602002602001015160800151848381518110610f3357610f32612876565b5b6020026020010151608001511115610fb857838181518110610f5857610f57612876565b5b6020026020010151848381518110610f7357610f72612876565b5b6020026020010151858481518110610f8e57610f8d612876565b5b60200260200101868481518110610fa857610fa7612876565b5b6020026020010182905282905250505b8080600101915050610ef9565b508080600101915050610edf565b506110db565b600286036110da5760005b838110156110d8576000600182610ffb91906129a3565b90505b848110156110ca5783818151811061101957611018612876565b5b60200260200101516080015184838151811061103857611037612876565b5b60200260200101516080015110156110bd5783818151811061105d5761105c612876565b5b602002602001015184838151811061107857611077612876565b5b602002602001015185848151811061109357611092612876565b5b602002602001018684815181106110ad576110ac612876565b5b6020026020010182905282905250505b8080600101915050610ffe565b508080600101915050610fe4565b505b5b5b60008760018a6110ec9190612a7a565b6110f69190612aae565b90506000888261110691906129a3565b905084811115611114578490505b600082826111229190612a7a565b67ffffffffffffffff81111561113b5761113a611b67565b5b60405190808252806020026020018201604052801561117457816020015b611161611a96565b8152602001906001900390816111595790505b50905060008390505b828110156111d65785818151811061119857611197612876565b5b60200260200101518285836111ad9190612a7a565b815181106111be576111bd612876565b5b6020026020010181905250808060010191505061117d565b50809650505050505050949350505050565b60006002600083815260200190815260200160002090508060050160009054906101000a900460ff16611250576040517f08c379a000000000000000000000000000000000000000000000000000000000815260040161124790612b3c565b60405180910390fd5b3373ffffffffffffffffffffffffffffffffffffffff168160010160009054906101000a900473ffffffffffffffffffffffffffffffffffffffff1673ffffffffffffffffffffffffffffffffffffffff16036112e2576040517f08c379a00000000000000000000000000000000000000000000000000000000081526004016112d990612bce565b60405180910390fd5b600560003373ffffffffffffffffffffffffffffffffffffffff1673ffffffffffffffffffffffffffffffffffffffff1681526020019081526020016000208290806001815401808255809150506001900390600052602060002001600090919091909150557f9d9f8fcef47ab1dd5cf9369891f660958457da888fcab465c59d8428d8d71a558233604051611379929190612bee565b60405180910390a15050565b600460205281600052604060002081815481106113a157600080fd5b90600052602060002001600091509150505481565b6113be611a1c565b60006002600083815260200190815260200160002090508060050160009054906101000a900460ff16611426576040517f08c379a000000000000000000000000000000000000000000000000000000000815260040161141d90612b3c565b60405180910390fd5b806004015434101561146d576040517f08c379a000000000000000000000000000000000000000000000000000000000815260040161146490612a23565b60405180910390fd5b3373ffffffffffffffffffffffffffffffffffffffff168160010160009054906101000a900473ffffffffffffffffffffffffffffffffffffffff1673ffffffffffffffffffffffffffffffffffffffff16036114ff576040517f08c379a00000000000000000000000000000000000000000000000000000000081526004016114f690612983565b60405180910390fd5b60008160010160009054906101000a900473ffffffffffffffffffffffffffffffffffffffff169050338260020160006101000a81548173ffffffffffffffffffffffffffffffffffffffff021916908373ffffffffffffffffffffffffffffffffffffffff16021790555060008260050160006101000a81548160ff0219169083151502179055508073ffffffffffffffffffffffffffffffffffffffff166108fc349081150290604051600060405180830381858888f193505050501580156115ce573d6000803e3d6000fd5b50600360003373ffffffffffffffffffffffffffffffffffffffff1673ffffffffffffffffffffffffffffffffffffffff1681526020019081526020016000208390806001815401808255809150506001900390600052602060002001600090919091909150557f6011b33359ac565ce9d08448bbbe206f571e89b9b656defae19749f7b834b2088333846004015460405161166c93929190612a43565b60405180910390a1505061167e611a6b565b50565b6005602052816000526040600020818154811061169d57600080fd5b90600052602060002001600091509150505481565b6000600560003373ffffffffffffffffffffffffffffffffffffffff1673ffffffffffffffffffffffffffffffffffffffff168152602001908152602001600020905060005b81805490508110156117eb578282828154811061171857611717612876565b5b9060005260206000200154036117de57816001838054905061173a9190612a7a565b8154811061174b5761174a612876565b5b906000526020600020015482828154811061176957611768612876565b5b90600052602060002001819055508180548061178857611787612c17565b5b600190038181906000526020600020016000905590557f385465af0c9b9671d692785103097f82ab37c2adf55c2f4446dab6850adf0f5c83336040516117cf929190612bee565b60405180910390a15050611827565b80806001019150506116f8565b506040517f08c379a000000000000000000000000000000000000000000000000000000000815260040161181e90612c92565b60405180910390fd5b50565b6060600560008373ffffffffffffffffffffffffffffffffffffffff1673ffffffffffffffffffffffffffffffffffffffff1681526020019081526020016000208054806020026020016040519081016040528092919081815260200182805480156118b557602002820191906000526020600020905b8154815260200190600101908083116118a1575b50505050509050919050565b600360205281600052604060002081815481106118dd57600080fd5b90600052602060002001600091509150505481565b60026020528060005260406000206000915090508060000154908060010160009054906101000a900473ffffffffffffffffffffffffffffffffffffffff16908060020160009054906101000a900473ffffffffffffffffffffffffffffffffffffffff1690806003018054611967906124f3565b80601f0160208091040260200160405190810160405280929190818152602001828054611993906124f3565b80156119e05780601f106119b5576101008083540402835291602001916119e0565b820191906000526020600020905b8154815290600101906020018083116119c357829003601f168201915b5050505050908060040154908060050160009054906101000a900460ff16908060060154908060070160009054906101000a900460ff16905088565b600260005403611a61576040517f08c379a0000000000000000000000000000000000000000000000000000000008152600401611a5890612cfe565b60405180910390fd5b6002600081905550565b6001600081905550565b5080546000825590600052602060002090810190611a939190611b1b565b50565b60405180610100016040528060008152602001600073ffffffffffffffffffffffffffffffffffffffff168152602001600073ffffffffffffffffffffffffffffffffffffffff16815260200160608152602001600081526020016000151581526020016000815260200160006005811115611b1557611b14611ed9565b5b81525090565b5b80821115611b34576000816000905550600101611b1c565b5090565b6000604051905090565b600080fd5b600080fd5b600080fd5b600080fd5b6000601f19601f8301169050919050565b7f4e487b7100000000000000000000000000000000000000000000000000000000600052604160045260246000fd5b611b9f82611b56565b810181811067ffffffffffffffff82111715611bbe57611bbd611b67565b5b80604052505050565b6000611bd1611b38565b9050611bdd8282611b96565b919050565b600067ffffffffffffffff821115611bfd57611bfc611b67565b5b611c0682611b56565b9050602081019050919050565b82818337600083830152505050565b6000611c35611c3084611be2565b611bc7565b905082815260208101848484011115611c5157611c50611b51565b5b611c5c848285611c13565b509392505050565b600082601f830112611c7957611c78611b4c565b5b8135611c89848260208601611c22565b91505092915050565b6000819050919050565b611ca581611c92565b8114611cb057600080fd5b50565b600081359050611cc281611c9c565b92915050565b60068110611cd557600080fd5b50565b600081359050611ce781611cc8565b92915050565b600080600060608486031215611d0657611d05611b42565b5b600084013567ffffffffffffffff811115611d2457611d23611b47565b5b611d3086828701611c64565b9350506020611d4186828701611cb3565b9250506040611d5286828701611cd8565b9150509250925092565b60008060008060808587031215611d7657611d75611b42565b5b6000611d8487828801611cb3565b9450506020611d9587828801611cb3565b9350506040611da687828801611cb3565b9250506060611db787828801611cd8565b91505092959194509250565b600081519050919050565b600082825260208201905092915050565b6000819050602082019050919050565b611df881611c92565b82525050565b600073ffffffffffffffffffffffffffffffffffffffff82169050919050565b6000611e2982611dfe565b9050919050565b611e3981611e1e565b82525050565b600081519050919050565b600082825260208201905092915050565b60005b83811015611e79578082015181840152602081019050611e5e565b60008484015250505050565b6000611e9082611e3f565b611e9a8185611e4a565b9350611eaa818560208601611e5b565b611eb381611b56565b840191505092915050565b60008115159050919050565b611ed381611ebe565b82525050565b7f4e487b7100000000000000000000000000000000000000000000000000000000600052602160045260246000fd5b60068110611f1957611f18611ed9565b5b50565b6000819050611f2a82611f08565b919050565b6000611f3a82611f1c565b9050919050565b611f4a81611f2f565b82525050565b600061010083016000830151611f696000860182611def565b506020830151611f7c6020860182611e30565b506040830151611f8f6040860182611e30565b5060608301518482036060860152611fa78282611e85565b9150506080830151611fbc6080860182611def565b5060a0830151611fcf60a0860182611eca565b5060c0830151611fe260c0860182611def565b5060e0830151611ff560e0860182611f41565b508091505092915050565b600061200c8383611f50565b905092915050565b6000602082019050919050565b600061202c82611dc3565b6120368185611dce565b93508360208202850161204885611ddf565b8060005b8581101561208457848403895281516120658582612000565b945061207083612014565b925060208a0199505060018101905061204c565b50829750879550505050505092915050565b600060208201905081810360008301526120b08184612021565b905092915050565b6000602082840312156120ce576120cd611b42565b5b60006120dc84828501611cb3565b91505092915050565b6120ee81611e1e565b81146120f957600080fd5b50565b60008135905061210b816120e5565b92915050565b6000806040838503121561212857612127611b42565b5b6000612136858286016120fc565b925050602061214785828601611cb3565b9150509250929050565b61215a81611c92565b82525050565b60006020820190506121756000830184612151565b92915050565b60006020828403121561219157612190611b42565b5b600061219f848285016120fc565b91505092915050565b600081519050919050565b600082825260208201905092915050565b6000819050602082019050919050565b60006121e08383611def565b60208301905092915050565b6000602082019050919050565b6000612204826121a8565b61220e81856121b3565b9350612219836121c4565b8060005b8381101561224a57815161223188826121d4565b975061223c836121ec565b92505060018101905061221d565b5085935050505092915050565b6000602082019050818103600083015261227181846121f9565b905092915050565b61228281611e1e565b82525050565b600082825260208201905092915050565b60006122a482611e3f565b6122ae8185612288565b93506122be818560208601611e5b565b6122c781611b56565b840191505092915050565b6122db81611ebe565b82525050565b6122ea81611f2f565b82525050565b600061010082019050612306600083018b612151565b612313602083018a612279565b6123206040830189612279565b81810360608301526123328188612299565b90506123416080830187612151565b61234e60a08301866122d2565b61235b60c0830185612151565b61236860e08301846122e1565b9998505050505050505050565b7f4d65746164617461205552492063616e6e6f7420626520656d70747900000000600082015250565b60006123ab601c83612288565b91506123b682612375565b602082019050919050565b600060208201905081810360008301526123da8161239e565b9050919050565b7f5072696365206d7573742062652067726561746572207468616e203000000000600082015250565b6000612417601c83612288565b9150612422826123e1565b602082019050919050565b600060208201905081810360008301526124468161240a565b9050919050565b7f4e487b7100000000000000000000000000000000000000000000000000000000600052601160045260246000fd5b600061248782611c92565b91507fffffffffffffffffffffffffffffffffffffffffffffffffffffffffffffffff82036124b9576124b861244d565b5b600182019050919050565b7f4e487b7100000000000000000000000000000000000000000000000000000000600052602260045260246000fd5b6000600282049050600182168061250b57607f821691505b60208210810361251e5761251d6124c4565b5b50919050565b60008190508160005260206000209050919050565b60006020601f8301049050919050565b600082821b905092915050565b6000600883026125867fffffffffffffffffffffffffffffffffffffffffffffffffffffffffffffffff82612549565b6125908683612549565b95508019841693508086168417925050509392505050565b6000819050919050565b60006125cd6125c86125c384611c92565b6125a8565b611c92565b9050919050565b6000819050919050565b6125e7836125b2565b6125fb6125f3826125d4565b848454612556565b825550505050565b600090565b612610612603565b61261b8184846125de565b505050565b5b8181101561263f57612634600082612608565b600181019050612621565b5050565b601f8211156126845761265581612524565b61265e84612539565b8101602085101561266d578190505b61268161267985612539565b830182612620565b50505b505050565b600082821c905092915050565b60006126a760001984600802612689565b1980831691505092915050565b60006126c08383612696565b9150826002028217905092915050565b6126d982611e3f565b67ffffffffffffffff8111156126f2576126f1611b67565b5b6126fc82546124f3565b612707828285612643565b600060209050601f83116001811461273a5760008415612728578287015190505b61273285826126b4565b86555061279a565b601f19841661274886612524565b60005b828110156127705784890151825560018201915060208501945060208101905061274b565b8683101561278d5784890151612789601f891682612696565b8355505b6001600288020188555050505b505050505050565b600060c0820190506127b76000830189612151565b6127c46020830188612279565b6127d16040830187612151565b81810360608301526127e38186612299565b90506127f26080830185612151565b6127ff60a08301846122e1565b979650505050505050565b7f4361727420697320656d70747900000000000000000000000000000000000000600082015250565b6000612840600d83612288565b915061284b8261280a565b602082019050919050565b6000602082019050818103600083015261286f81612833565b9050919050565b7f4e487b7100000000000000000000000000000000000000000000000000000000600052603260045260246000fd5b7f536f6d652061737365747320617265206e6f206c6f6e67657220617661696c6160008201527f626c650000000000000000000000000000000000000000000000000000000000602082015250565b6000612901602383612288565b915061290c826128a5565b604082019050919050565b60006020820190508181036000830152612930816128f4565b9050919050565b7f43616e6e6f742062757920796f7572206f776e20617373657400000000000000600082015250565b600061296d601983612288565b915061297882612937565b602082019050919050565b6000602082019050818103600083015261299c81612960565b9050919050565b60006129ae82611c92565b91506129b983611c92565b92508282019050808211156129d1576129d061244d565b5b92915050565b7f496e73756666696369656e742066756e64730000000000000000000000000000600082015250565b6000612a0d601283612288565b9150612a18826129d7565b602082019050919050565b60006020820190508181036000830152612a3c81612a00565b9050919050565b6000606082019050612a586000830186612151565b612a656020830185612279565b612a726040830184612151565b949350505050565b6000612a8582611c92565b9150612a9083611c92565b9250828203905081811115612aa857612aa761244d565b5b92915050565b6000612ab982611c92565b9150612ac483611c92565b9250828202612ad281611c92565b91508282048414831517612ae957612ae861244d565b5b5092915050565b7f4173736574206973206e6f74206c697374656420666f722073616c6500000000600082015250565b6000612b26601c83612288565b9150612b3182612af0565b602082019050919050565b60006020820190508181036000830152612b5581612b19565b9050919050565b7f43616e6e6f742061646420796f7572206f776e20617373657420746f2063617260008201527f7400000000000000000000000000000000000000000000000000000000000000602082015250565b6000612bb8602183612288565b9150612bc382612b5c565b604082019050919050565b60006020820190508181036000830152612be781612bab565b9050919050565b6000604082019050612c036000830185612151565b612c106020830184612279565b9392505050565b7f4e487b7100000000000000000000000000000000000000000000000000000000600052603160045260246000fd5b7f4173736574206e6f7420666f756e6420696e2063617274000000000000000000600082015250565b6000612c7c601783612288565b9150612c8782612c46565b602082019050919050565b60006020820190508181036000830152612cab81612c6f565b9050919050565b7f5265656e7472616e637947756172643a207265656e7472616e742063616c6c00600082015250565b6000612ce8601f83612288565b9150612cf382612cb2565b602082019050919050565b60006020820190508181036000830152612d1781612cdb565b905091905056fea2646970667358221220a9678740c8c48df1788199802efbed4beb49c20406fabe8a0e2df808b32f0d1d64736f6c634300081c0033",
    "linkReferences": {},
    "deployedLinkReferences": {}
}