{
  "_format": "hh-sol-artifact-1",
  "contractName": "Marketplace",
  "sourceName": "contracts/Marketplace.sol",
  "abi": [
    {
      "anonymous": false,
      "inputs": [
        {
          "indexed": false,
          "internalType": "uint256",
          "name": "assetId",
          "type": "uint256"
        },
        {
          "indexed": false,
          "internalType": "address",
          "name": "buyer",
          "type": "address"
        }
      ],
      "name": "AssetAddedToCart",
      "type": "event"
    },
    {
      "anonymous": false,
      "inputs": [
        {
          "indexed": false,
          "internalType": "uint256",
          "name": "assetId",
          "type": "uint256"
        },
        {
          "indexed": false,
          "internalType": "string",
          "name": "name",
          "type": "string"
        },
        {
          "indexed": false,
          "internalType": "address",
          "name": "seller",
          "type": "address"
        },
        {
          "indexed": false,
          "internalType": "uint256",
          "name": "price",
          "type": "uint256"
        },
        {
          "indexed": false,
          "internalType": "string",
          "name": "metadataURI",
          "type": "string"
        },
        {
          "indexed": false,
          "internalType": "uint256",
          "name": "timestamp",
          "type": "uint256"
        },
        {
          "indexed": false,
          "internalType": "enum Marketplace.Category",
          "name": "category",
          "type": "uint8"
        }
      ],
      "name": "AssetListed",
      "type": "event"
    },
    {
      "anonymous": false,
      "inputs": [
        {
          "indexed": false,
          "internalType": "uint256",
          "name": "assetId",
          "type": "uint256"
        },
        {
          "indexed": false,
          "internalType": "address",
          "name": "buyer",
          "type": "address"
        },
        {
          "indexed": false,
          "internalType": "uint256",
          "name": "price",
          "type": "uint256"
        }
      ],
      "name": "AssetPurchased",
      "type": "event"
    },
    {
      "anonymous": false,
      "inputs": [
        {
          "indexed": false,
          "internalType": "uint256",
          "name": "assetId",
          "type": "uint256"
        },
        {
          "indexed": false,
          "internalType": "address",
          "name": "buyer",
          "type": "address"
        }
      ],
      "name": "AssetRemovedFromCart",
      "type": "event"
    },
    {
      "inputs": [
        {
          "internalType": "uint256",
          "name": "_assetId",
          "type": "uint256"
        }
      ],
      "name": "addToCart",
      "outputs": [],
      "stateMutability": "nonpayable",
      "type": "function"
    },
    {
      "inputs": [
        {
          "internalType": "uint256",
          "name": "",
          "type": "uint256"
        }
      ],
      "name": "assets",
      "outputs": [
        {
          "internalType": "uint256",
          "name": "id",
          "type": "uint256"
        },
        {
          "internalType": "string",
          "name": "name",
          "type": "string"
        },
        {
          "internalType": "address",
          "name": "seller",
          "type": "address"
        },
        {
          "internalType": "address",
          "name": "owner",
          "type": "address"
        },
        {
          "internalType": "string",
          "name": "metadataURI",
          "type": "string"
        },
        {
          "internalType": "uint256",
          "name": "price",
          "type": "uint256"
        },
        {
          "internalType": "bool",
          "name": "isListed",
          "type": "bool"
        },
        {
          "internalType": "uint256",
          "name": "timestamp",
          "type": "uint256"
        },
        {
          "internalType": "enum Marketplace.Category",
          "name": "category",
          "type": "uint8"
        }
      ],
      "stateMutability": "view",
      "type": "function"
    },
    {
      "inputs": [
        {
          "internalType": "uint256",
          "name": "_page",
          "type": "uint256"
        },
        {
          "internalType": "uint256",
          "name": "_perPage",
          "type": "uint256"
        },
        {
          "internalType": "uint256",
          "name": "_sortBy",
          "type": "uint256"
        },
        {
          "internalType": "bool",
          "name": "_hasCategory",
          "type": "bool"
        },
        {
          "internalType": "enum Marketplace.Category",
          "name": "_category",
          "type": "uint8"
        }
      ],
      "name": "getAssets",
      "outputs": [
        {
          "components": [
            {
              "internalType": "uint256",
              "name": "id",
              "type": "uint256"
            },
            {
              "internalType": "string",
              "name": "name",
              "type": "string"
            },
            {
              "internalType": "address",
              "name": "seller",
              "type": "address"
            },
            {
              "internalType": "address",
              "name": "owner",
              "type": "address"
            },
            {
              "internalType": "string",
              "name": "metadataURI",
              "type": "string"
            },
            {
              "internalType": "uint256",
              "name": "price",
              "type": "uint256"
            },
            {
              "internalType": "bool",
              "name": "isListed",
              "type": "bool"
            },
            {
              "internalType": "uint256",
              "name": "timestamp",
              "type": "uint256"
            },
            {
              "internalType": "enum Marketplace.Category",
              "name": "category",
              "type": "uint8"
            }
          ],
          "internalType": "struct Marketplace.Asset[]",
          "name": "",
          "type": "tuple[]"
        }
      ],
      "stateMutability": "view",
      "type": "function"
    },
    {
      "inputs": [
        {
          "internalType": "address",
          "name": "_user",
          "type": "address"
        }
      ],
      "name": "getUserCart",
      "outputs": [
        {
          "internalType": "uint256[]",
          "name": "",
          "type": "uint256[]"
        }
      ],
      "stateMutability": "view",
      "type": "function"
    },
    {
      "inputs": [
        {
          "internalType": "string",
          "name": "_name",
          "type": "string"
        },
        {
          "internalType": "string",
          "name": "_metadataURI",
          "type": "string"
        },
        {
          "internalType": "uint256",
          "name": "_price",
          "type": "uint256"
        },
        {
          "internalType": "enum Marketplace.Category",
          "name": "_category",
          "type": "uint8"
        }
      ],
      "name": "listAsset",
      "outputs": [],
      "stateMutability": "nonpayable",
      "type": "function"
    },
    {
      "inputs": [
        {
          "internalType": "uint256",
          "name": "_assetId",
          "type": "uint256"
        }
      ],
      "name": "purchaseAsset",
      "outputs": [],
      "stateMutability": "payable",
      "type": "function"
    },
    {
      "inputs": [],
      "name": "purchaseFromCart",
      "outputs": [],
      "stateMutability": "payable",
      "type": "function"
    },
    {
      "inputs": [
        {
          "internalType": "uint256",
          "name": "_assetId",
          "type": "uint256"
        }
      ],
      "name": "removeFromCart",
      "outputs": [],
      "stateMutability": "nonpayable",
      "type": "function"
    },
    {
      "inputs": [
        {
          "internalType": "string",
          "name": "_name",
          "type": "string"
        }
      ],
      "name": "searchByName",
      "outputs": [
        {
          "components": [
            {
              "internalType": "uint256",
              "name": "id",
              "type": "uint256"
            },
            {
              "internalType": "string",
              "name": "name",
              "type": "string"
            },
            {
              "internalType": "address",
              "name": "seller",
              "type": "address"
            },
            {
              "internalType": "address",
              "name": "owner",
              "type": "address"
            },
            {
              "internalType": "string",
              "name": "metadataURI",
              "type": "string"
            },
            {
              "internalType": "uint256",
              "name": "price",
              "type": "uint256"
            },
            {
              "internalType": "bool",
              "name": "isListed",
              "type": "bool"
            },
            {
              "internalType": "uint256",
              "name": "timestamp",
              "type": "uint256"
            },
            {
              "internalType": "enum Marketplace.Category",
              "name": "category",
              "type": "uint8"
            }
          ],
          "internalType": "struct Marketplace.Asset[]",
          "name": "",
          "type": "tuple[]"
        }
      ],
      "stateMutability": "view",
      "type": "function"
    },
    {
      "inputs": [
        {
          "internalType": "address",
          "name": "",
          "type": "address"
        },
        {
          "internalType": "uint256",
          "name": "",
          "type": "uint256"
        }
      ],
      "name": "userCart",
      "outputs": [
        {
          "internalType": "uint256",
          "name": "",
          "type": "uint256"
        }
      ],
      "stateMutability": "view",
      "type": "function"
    },
    {
      "inputs": [
        {
          "internalType": "address",
          "name": "",
          "type": "address"
        },
        {
          "internalType": "uint256",
          "name": "",
          "type": "uint256"
        }
      ],
      "name": "userPurchases",
      "outputs": [
        {
          "internalType": "uint256",
          "name": "",
          "type": "uint256"
        }
      ],
      "stateMutability": "view",
      "type": "function"
    },
    {
      "inputs": [
        {
          "internalType": "address",
          "name": "",
          "type": "address"
        },
        {
          "internalType": "uint256",
          "name": "",
          "type": "uint256"
        }
      ],
      "name": "userSales",
      "outputs": [
        {
          "internalType": "uint256",
          "name": "",
          "type": "uint256"
        }
      ],
      "stateMutability": "view",
      "type": "function"
    }
  ],
  "bytecode": "0x6080604052348015600f57600080fd5b50600160008190555061360d806100276000396000f3fe6080604052600436106100a75760003560e01c8063a77c414e11610064578063a77c414e1461019e578063ca29610e146101db578063cd9803bb14610204578063cf2c033414610241578063cf35bdd01461027e578063ddbbc35c146102c3576100a7565b806321571177146100ac57806327fb2e8f146100d55780634d090f42146100df578063702742b01461011c5780638b8a438a14610145578063a457e1c014610182575b600080fd5b3480156100b857600080fd5b506100d360048036038101906100ce91906122e1565b610300565b005b6100dd61068d565b005b3480156100eb57600080fd5b50610106600480360381019061010191906123b8565b610b07565b6040516101139190612716565b60405180910390f35b34801561012857600080fd5b50610143600480360381019061013e9190612738565b611372565b005b34801561015157600080fd5b5061016c60048036038101906101679190612791565b61150f565b60405161017991906127e0565b60405180910390f35b61019c60048036038101906101979190612738565b611540565b005b3480156101aa57600080fd5b506101c560048036038101906101c09190612791565b61180b565b6040516101d291906127e0565b60405180910390f35b3480156101e757600080fd5b5061020260048036038101906101fd9190612738565b61183c565b005b34801561021057600080fd5b5061022b600480360381019061022691906127fb565b6119b4565b60405161023891906128d7565b60405180910390f35b34801561024d57600080fd5b5061026860048036038101906102639190612791565b611a4b565b60405161027591906127e0565b60405180910390f35b34801561028a57600080fd5b506102a560048036038101906102a09190612738565b611a7c565b6040516102ba99989796959493929190612970565b60405180910390f35b3480156102cf57600080fd5b506102ea60048036038101906102e59190612a0b565b611c34565b6040516102f79190612716565b60405180910390f35b6000845111610344576040517f08c379a000000000000000000000000000000000000000000000000000000000815260040161033b90612aa0565b60405180910390fd5b6000835111610388576040517f08c379a000000000000000000000000000000000000000000000000000000000815260040161037f90612b0c565b60405180910390fd5b600082116103cb576040517f08c379a00000000000000000000000000000000000000000000000000000000081526004016103c290612b78565b60405180910390fd5b60006103d5611fc4565b90506040518061012001604052808281526020018681526020013373ffffffffffffffffffffffffffffffffffffffff168152602001600073ffffffffffffffffffffffffffffffffffffffff1681526020018581526020018481526020016001151581526020014281526020018360058111156104565761045561253d565b5b8152506001600083815260200190815260200160002060008201518160000155602082015181600101908161048b9190612da4565b5060408201518160020160006101000a81548173ffffffffffffffffffffffffffffffffffffffff021916908373ffffffffffffffffffffffffffffffffffffffff16021790555060608201518160030160006101000a81548173ffffffffffffffffffffffffffffffffffffffff021916908373ffffffffffffffffffffffffffffffffffffffff160217905550608082015181600401908161052f9190612da4565b5060a0820151816005015560c08201518160060160006101000a81548160ff02191690831515021790555060e082015181600701556101008201518160080160006101000a81548160ff021916908360058111156105905761058f61253d565b5b0217905550905050600360003373ffffffffffffffffffffffffffffffffffffffff1673ffffffffffffffffffffffffffffffffffffffff16815260200190815260200160002081908060018154018082558091505060019003906000526020600020016000909190919091505560058560405161060e9190612eb2565b90815260200160405180910390208190806001815401808255809150506001900390600052602060002001600090919091909150557faa873b9f075237c867a794ca813cbde1773ae17692b8ea0303d48aad8ac1350d8186338688428860405161067e9796959493929190612ec9565b60405180910390a15050505050565b610695612009565b6000600460003373ffffffffffffffffffffffffffffffffffffffff1673ffffffffffffffffffffffffffffffffffffffff1681526020019081526020016000209050600081805490501161071f576040517f08c379a000000000000000000000000000000000000000000000000000000000815260040161071690612f92565b60405180910390fd5b6000805b82805490508110156108665760006001600085848154811061074857610747612fb2565b5b9060005260206000200154815260200190815260200160002090508060060160009054906101000a900460ff166107b4576040517f08c379a00000000000000000000000000000000000000000000000000000000081526004016107ab90613053565b60405180910390fd5b3373ffffffffffffffffffffffffffffffffffffffff168160020160009054906101000a900473ffffffffffffffffffffffffffffffffffffffff1673ffffffffffffffffffffffffffffffffffffffff1603610846576040517f08c379a000000000000000000000000000000000000000000000000000000000815260040161083d906130bf565b60405180910390fd5b806005015483610856919061310e565b9250508080600101915050610723565b50803410156108aa576040517f08c379a00000000000000000000000000000000000000000000000000000000081526004016108a19061318e565b60405180910390fd5b60005b8280549050811015610aaf576000600160008584815481106108d2576108d1612fb2565b5b906000526020600020015481526020019081526020016000209050338160030160006101000a81548173ffffffffffffffffffffffffffffffffffffffff021916908373ffffffffffffffffffffffffffffffffffffffff16021790555060008160060160006101000a81548160ff02191690831515021790555060008160020160009054906101000a900473ffffffffffffffffffffffffffffffffffffffff1690508073ffffffffffffffffffffffffffffffffffffffff166108fc83600501549081150290604051600060405180830381858888f193505050501580156109c0573d6000803e3d6000fd5b50600260003373ffffffffffffffffffffffffffffffffffffffff1673ffffffffffffffffffffffffffffffffffffffff168152602001908152602001600020858481548110610a1357610a12612fb2565b5b906000526020600020015490806001815401808255809150506001900390600052602060002001600090919091909150557f6011b33359ac565ce9d08448bbbe206f571e89b9b656defae19749f7b834b208858481548110610a7857610a77612fb2565b5b9060005260206000200154338460050154604051610a98939291906131ae565b60405180910390a1505080806001019150506108ad565b50600460003373ffffffffffffffffffffffffffffffffffffffff1673ffffffffffffffffffffffffffffffffffffffff1681526020019081526020016000206000610afb9190612062565b5050610b05612058565b565b6060600080620186a067ffffffffffffffff811115610b2957610b2861215b565b5b604051908082528060200260200182016040528015610b575781602001602082028036833780820191505090505b5090506000600190505b620186a08111610c2f576001600082815260200190815260200160002060060160009054906101000a900460ff1615610c1b57858015610be85750846005811115610baf57610bae61253d565b5b6001600083815260200190815260200160002060080160009054906101000a900460ff166005811115610be557610be461253d565b5b14155b610c1c5780828481518110610c0057610bff612fb2565b5b6020026020010181815250508280610c17906131e5565b9350505b5b8080610c27906131e5565b915050610b61565b5060008267ffffffffffffffff811115610c4c57610c4b61215b565b5b604051908082528060200260200182016040528015610c8557816020015b610c72612083565b815260200190600190039081610c6a5790505b50905060005b83811015610f3b5760016000848381518110610caa57610ca9612fb2565b5b602002602001015181526020019081526020016000206040518061012001604052908160008201548152602001600182018054610ce690612bc7565b80601f0160208091040260200160405190810160405280929190818152602001828054610d1290612bc7565b8015610d5f5780601f10610d3457610100808354040283529160200191610d5f565b820191906000526020600020905b815481529060010190602001808311610d4257829003601f168201915b505050505081526020016002820160009054906101000a900473ffffffffffffffffffffffffffffffffffffffff1673ffffffffffffffffffffffffffffffffffffffff1673ffffffffffffffffffffffffffffffffffffffff1681526020016003820160009054906101000a900473ffffffffffffffffffffffffffffffffffffffff1673ffffffffffffffffffffffffffffffffffffffff1673ffffffffffffffffffffffffffffffffffffffff168152602001600482018054610e2490612bc7565b80601f0160208091040260200160405190810160405280929190818152602001828054610e5090612bc7565b8015610e9d5780601f10610e7257610100808354040283529160200191610e9d565b820191906000526020600020905b815481529060010190602001808311610e8057829003601f168201915b50505050508152602001600582015481526020016006820160009054906101000a900460ff16151515158152602001600782015481526020016008820160009054906101000a900460ff166005811115610efa57610ef961253d565b5b6005811115610f0c57610f0b61253d565b5b81525050828281518110610f2357610f22612fb2565b5b60200260200101819052508080600101915050610c8b565b50600087036110415760005b8381101561103b576000600182610f5e919061310e565b90505b8481101561102d57828181518110610f7c57610f7b612fb2565b5b602002602001015160e00151838381518110610f9b57610f9a612fb2565b5b602002602001015160e00151101561102057828181518110610fc057610fbf612fb2565b5b6020026020010151838381518110610fdb57610fda612fb2565b5b6020026020010151848481518110610ff657610ff5612fb2565b5b602002602001018584815181106110105761100f612fb2565b5b6020026020010182905282905250505b8080600101915050610f61565b508080600101915050610f47565b50611249565b600187036111465760005b83811015611140576000600182611063919061310e565b90505b848110156111325782818151811061108157611080612fb2565b5b602002602001015160a001518383815181106110a05761109f612fb2565b5b602002602001015160a001511115611125578281815181106110c5576110c4612fb2565b5b60200260200101518383815181106110e0576110df612fb2565b5b60200260200101518484815181106110fb576110fa612fb2565b5b6020026020010185848151811061111557611114612fb2565b5b6020026020010182905282905250505b8080600101915050611066565b50808060010191505061104c565b50611248565b600287036112475760005b83811015611245576000600182611168919061310e565b90505b848110156112375782818151811061118657611185612fb2565b5b602002602001015160a001518383815181106111a5576111a4612fb2565b5b602002602001015160a00151101561122a578281815181106111ca576111c9612fb2565b5b60200260200101518383815181106111e5576111e4612fb2565b5b6020026020010151848481518110611200576111ff612fb2565b5b6020026020010185848151811061121a57611219612fb2565b5b6020026020010182905282905250505b808060010191505061116b565b508080600101915050611151565b505b5b5b6000880361125657600a97505b6000808a1161126657600061127f565b8860018b611274919061322d565b61127e9190613261565b5b90506000898261128f919061310e565b90508481111561129d578490505b600082826112ab919061322d565b67ffffffffffffffff8111156112c4576112c361215b565b5b6040519080825280602002602001820160405280156112fd57816020015b6112ea612083565b8152602001906001900390816112e25790505b50905060008390505b8281101561135f5784818151811061132157611320612fb2565b5b6020026020010151828583611336919061322d565b8151811061134757611346612fb2565b5b60200260200101819052508080600101915050611306565b5080965050505050505095945050505050565b60006001600083815260200190815260200160002090508060060160009054906101000a900460ff166113da576040517f08c379a00000000000000000000000000000000000000000000000000000000081526004016113d1906132ef565b60405180910390fd5b3373ffffffffffffffffffffffffffffffffffffffff168160020160009054906101000a900473ffffffffffffffffffffffffffffffffffffffff1673ffffffffffffffffffffffffffffffffffffffff160361146c576040517f08c379a000000000000000000000000000000000000000000000000000000000815260040161146390613381565b60405180910390fd5b600460003373ffffffffffffffffffffffffffffffffffffffff1673ffffffffffffffffffffffffffffffffffffffff1681526020019081526020016000208290806001815401808255809150506001900390600052602060002001600090919091909150557f9d9f8fcef47ab1dd5cf9369891f660958457da888fcab465c59d8428d8d71a5582336040516115039291906133a1565b60405180910390a15050565b6003602052816000526040600020818154811061152b57600080fd5b90600052602060002001600091509150505481565b611548612009565b60006001600083815260200190815260200160002090508060060160009054906101000a900460ff166115b0576040517f08c379a00000000000000000000000000000000000000000000000000000000081526004016115a7906132ef565b60405180910390fd5b80600501543410156115f7576040517f08c379a00000000000000000000000000000000000000000000000000000000081526004016115ee9061318e565b60405180910390fd5b3373ffffffffffffffffffffffffffffffffffffffff168160020160009054906101000a900473ffffffffffffffffffffffffffffffffffffffff1673ffffffffffffffffffffffffffffffffffffffff1603611689576040517f08c379a0000000000000000000000000000000000000000000000000000000008152600401611680906130bf565b60405180910390fd5b60008160020160009054906101000a900473ffffffffffffffffffffffffffffffffffffffff169050338260030160006101000a81548173ffffffffffffffffffffffffffffffffffffffff021916908373ffffffffffffffffffffffffffffffffffffffff16021790555060008260060160006101000a81548160ff0219169083151502179055508073ffffffffffffffffffffffffffffffffffffffff166108fc349081150290604051600060405180830381858888f19350505050158015611758573d6000803e3d6000fd5b50600260003373ffffffffffffffffffffffffffffffffffffffff1673ffffffffffffffffffffffffffffffffffffffff1681526020019081526020016000208390806001815401808255809150506001900390600052602060002001600090919091909150557f6011b33359ac565ce9d08448bbbe206f571e89b9b656defae19749f7b834b208833384600501546040516117f6939291906131ae565b60405180910390a15050611808612058565b50565b6004602052816000526040600020818154811061182757600080fd5b90600052602060002001600091509150505481565b6000600460003373ffffffffffffffffffffffffffffffffffffffff1673ffffffffffffffffffffffffffffffffffffffff168152602001908152602001600020905060005b818054905081101561197557828282815481106118a2576118a1612fb2565b5b9060005260206000200154036119685781600183805490506118c4919061322d565b815481106118d5576118d4612fb2565b5b90600052602060002001548282815481106118f3576118f2612fb2565b5b906000526020600020018190555081805480611912576119116133ca565b5b600190038181906000526020600020016000905590557f385465af0c9b9671d692785103097f82ab37c2adf55c2f4446dab6850adf0f5c83336040516119599291906133a1565b60405180910390a150506119b1565b8080600101915050611882565b506040517f08c379a00000000000000000000000000000000000000000000000000000000081526004016119a890613445565b60405180910390fd5b50565b6060600460008373ffffffffffffffffffffffffffffffffffffffff1673ffffffffffffffffffffffffffffffffffffffff168152602001908152602001600020805480602002602001604051908101604052809291908181526020018280548015611a3f57602002820191906000526020600020905b815481526020019060010190808311611a2b575b50505050509050919050565b60026020528160005260406000208181548110611a6757600080fd5b90600052602060002001600091509150505481565b6001602052806000526040600020600091509050806000015490806001018054611aa590612bc7565b80601f0160208091040260200160405190810160405280929190818152602001828054611ad190612bc7565b8015611b1e5780601f10611af357610100808354040283529160200191611b1e565b820191906000526020600020905b815481529060010190602001808311611b0157829003601f168201915b5050505050908060020160009054906101000a900473ffffffffffffffffffffffffffffffffffffffff16908060030160009054906101000a900473ffffffffffffffffffffffffffffffffffffffff1690806004018054611b7f90612bc7565b80601f0160208091040260200160405190810160405280929190818152602001828054611bab90612bc7565b8015611bf85780601f10611bcd57610100808354040283529160200191611bf8565b820191906000526020600020905b815481529060010190602001808311611bdb57829003601f168201915b5050505050908060050154908060060160009054906101000a900460ff16908060070154908060080160009054906101000a900460ff16905089565b60606000600583604051611c489190612eb2565b9081526020016040518091039020805480602002602001604051908101604052809291908181526020018280548015611ca057602002820191906000526020600020905b815481526020019060010190808311611c8c575b5050505050905060008151905060008167ffffffffffffffff811115611cc957611cc861215b565b5b604051908082528060200260200182016040528015611d0257816020015b611cef612083565b815260200190600190039081611ce75790505b50905060005b82811015611fb85760016000858381518110611d2757611d26612fb2565b5b602002602001015181526020019081526020016000206040518061012001604052908160008201548152602001600182018054611d6390612bc7565b80601f0160208091040260200160405190810160405280929190818152602001828054611d8f90612bc7565b8015611ddc5780601f10611db157610100808354040283529160200191611ddc565b820191906000526020600020905b815481529060010190602001808311611dbf57829003601f168201915b505050505081526020016002820160009054906101000a900473ffffffffffffffffffffffffffffffffffffffff1673ffffffffffffffffffffffffffffffffffffffff1673ffffffffffffffffffffffffffffffffffffffff1681526020016003820160009054906101000a900473ffffffffffffffffffffffffffffffffffffffff1673ffffffffffffffffffffffffffffffffffffffff1673ffffffffffffffffffffffffffffffffffffffff168152602001600482018054611ea190612bc7565b80601f0160208091040260200160405190810160405280929190818152602001828054611ecd90612bc7565b8015611f1a5780601f10611eef57610100808354040283529160200191611f1a565b820191906000526020600020905b815481529060010190602001808311611efd57829003601f168201915b50505050508152602001600582015481526020016006820160009054906101000a900460ff16151515158152602001600782015481526020016008820160009054906101000a900460ff166005811115611f7757611f7661253d565b5b6005811115611f8957611f8861253d565b5b81525050828281518110611fa057611f9f612fb2565b5b60200260200101819052508080600101915050611d08565b50809350505050919050565b60006402540be400423343604051602001611fe1939291906134ce565b6040516020818303038152906040528051906020012060001c612004919061353a565b905090565b60026000540361204e576040517f08c379a0000000000000000000000000000000000000000000000000000000008152600401612045906135b7565b60405180910390fd5b6002600081905550565b6001600081905550565b5080546000825590600052602060002090810190612080919061210f565b50565b6040518061012001604052806000815260200160608152602001600073ffffffffffffffffffffffffffffffffffffffff168152602001600073ffffffffffffffffffffffffffffffffffffffff168152602001606081526020016000815260200160001515815260200160008152602001600060058111156121095761210861253d565b5b81525090565b5b80821115612128576000816000905550600101612110565b5090565b6000604051905090565b600080fd5b600080fd5b600080fd5b600080fd5b6000601f19601f8301169050919050565b7f4e487b7100000000000000000000000000000000000000000000000000000000600052604160045260246000fd5b6121938261214a565b810181811067ffffffffffffffff821117156121b2576121b161215b565b5b80604052505050565b60006121c561212c565b90506121d1828261218a565b919050565b600067ffffffffffffffff8211156121f1576121f061215b565b5b6121fa8261214a565b9050602081019050919050565b82818337600083830152505050565b6000612229612224846121d6565b6121bb565b90508281526020810184848401111561224557612244612145565b5b612250848285612207565b509392505050565b600082601f83011261226d5761226c612140565b5b813561227d848260208601612216565b91505092915050565b6000819050919050565b61229981612286565b81146122a457600080fd5b50565b6000813590506122b681612290565b92915050565b600681106122c957600080fd5b50565b6000813590506122db816122bc565b92915050565b600080600080608085870312156122fb576122fa612136565b5b600085013567ffffffffffffffff8111156123195761231861213b565b5b61232587828801612258565b945050602085013567ffffffffffffffff8111156123465761234561213b565b5b61235287828801612258565b9350506040612363878288016122a7565b9250506060612374878288016122cc565b91505092959194509250565b60008115159050919050565b61239581612380565b81146123a057600080fd5b50565b6000813590506123b28161238c565b92915050565b600080600080600060a086880312156123d4576123d3612136565b5b60006123e2888289016122a7565b95505060206123f3888289016122a7565b9450506040612404888289016122a7565b9350506060612415888289016123a3565b9250506080612426888289016122cc565b9150509295509295909350565b600081519050919050565b600082825260208201905092915050565b6000819050602082019050919050565b61246881612286565b82525050565b600081519050919050565b600082825260208201905092915050565b60005b838110156124a857808201518184015260208101905061248d565b60008484015250505050565b60006124bf8261246e565b6124c98185612479565b93506124d981856020860161248a565b6124e28161214a565b840191505092915050565b600073ffffffffffffffffffffffffffffffffffffffff82169050919050565b6000612518826124ed565b9050919050565b6125288161250d565b82525050565b61253781612380565b82525050565b7f4e487b7100000000000000000000000000000000000000000000000000000000600052602160045260246000fd5b6006811061257d5761257c61253d565b5b50565b600081905061258e8261256c565b919050565b600061259e82612580565b9050919050565b6125ae81612593565b82525050565b6000610120830160008301516125cd600086018261245f565b50602083015184820360208601526125e582826124b4565b91505060408301516125fa604086018261251f565b50606083015161260d606086018261251f565b506080830151848203608086015261262582826124b4565b91505060a083015161263a60a086018261245f565b5060c083015161264d60c086018261252e565b5060e083015161266060e086018261245f565b506101008301516126756101008601826125a5565b508091505092915050565b600061268c83836125b4565b905092915050565b6000602082019050919050565b60006126ac82612433565b6126b6818561243e565b9350836020820285016126c88561244f565b8060005b8581101561270457848403895281516126e58582612680565b94506126f083612694565b925060208a019950506001810190506126cc565b50829750879550505050505092915050565b6000602082019050818103600083015261273081846126a1565b905092915050565b60006020828403121561274e5761274d612136565b5b600061275c848285016122a7565b91505092915050565b61276e8161250d565b811461277957600080fd5b50565b60008135905061278b81612765565b92915050565b600080604083850312156127a8576127a7612136565b5b60006127b68582860161277c565b92505060206127c7858286016122a7565b9150509250929050565b6127da81612286565b82525050565b60006020820190506127f560008301846127d1565b92915050565b60006020828403121561281157612810612136565b5b600061281f8482850161277c565b91505092915050565b600081519050919050565b600082825260208201905092915050565b6000819050602082019050919050565b6000612860838361245f565b60208301905092915050565b6000602082019050919050565b600061288482612828565b61288e8185612833565b935061289983612844565b8060005b838110156128ca5781516128b18882612854565b97506128bc8361286c565b92505060018101905061289d565b5085935050505092915050565b600060208201905081810360008301526128f18184612879565b905092915050565b600082825260208201905092915050565b60006129158261246e565b61291f81856128f9565b935061292f81856020860161248a565b6129388161214a565b840191505092915050565b61294c8161250d565b82525050565b61295b81612380565b82525050565b61296a81612593565b82525050565b600061012082019050612986600083018c6127d1565b8181036020830152612998818b61290a565b90506129a7604083018a612943565b6129b46060830189612943565b81810360808301526129c6818861290a565b90506129d560a08301876127d1565b6129e260c0830186612952565b6129ef60e08301856127d1565b6129fd610100830184612961565b9a9950505050505050505050565b600060208284031215612a2157612a20612136565b5b600082013567ffffffffffffffff811115612a3f57612a3e61213b565b5b612a4b84828501612258565b91505092915050565b7f4e616d652063616e6e6f7420626520656d707479000000000000000000000000600082015250565b6000612a8a6014836128f9565b9150612a9582612a54565b602082019050919050565b60006020820190508181036000830152612ab981612a7d565b9050919050565b7f4d65746164617461205552492063616e6e6f7420626520656d70747900000000600082015250565b6000612af6601c836128f9565b9150612b0182612ac0565b602082019050919050565b60006020820190508181036000830152612b2581612ae9565b9050919050565b7f5072696365206d7573742062652067726561746572207468616e203000000000600082015250565b6000612b62601c836128f9565b9150612b6d82612b2c565b602082019050919050565b60006020820190508181036000830152612b9181612b55565b9050919050565b7f4e487b7100000000000000000000000000000000000000000000000000000000600052602260045260246000fd5b60006002820490506001821680612bdf57607f821691505b602082108103612bf257612bf1612b98565b5b50919050565b60008190508160005260206000209050919050565b60006020601f8301049050919050565b600082821b905092915050565b600060088302612c5a7fffffffffffffffffffffffffffffffffffffffffffffffffffffffffffffffff82612c1d565b612c648683612c1d565b95508019841693508086168417925050509392505050565b6000819050919050565b6000612ca1612c9c612c9784612286565b612c7c565b612286565b9050919050565b6000819050919050565b612cbb83612c86565b612ccf612cc782612ca8565b848454612c2a565b825550505050565b600090565b612ce4612cd7565b612cef818484612cb2565b505050565b5b81811015612d1357612d08600082612cdc565b600181019050612cf5565b5050565b601f821115612d5857612d2981612bf8565b612d3284612c0d565b81016020851015612d41578190505b612d55612d4d85612c0d565b830182612cf4565b50505b505050565b600082821c905092915050565b6000612d7b60001984600802612d5d565b1980831691505092915050565b6000612d948383612d6a565b9150826002028217905092915050565b612dad8261246e565b67ffffffffffffffff811115612dc657612dc561215b565b5b612dd08254612bc7565b612ddb828285612d17565b600060209050601f831160018114612e0e5760008415612dfc578287015190505b612e068582612d88565b865550612e6e565b601f198416612e1c86612bf8565b60005b82811015612e4457848901518255600182019150602085019450602081019050612e1f565b86831015612e615784890151612e5d601f891682612d6a565b8355505b6001600288020188555050505b505050505050565b600081905092915050565b6000612e8c8261246e565b612e968185612e76565b9350612ea681856020860161248a565b80840191505092915050565b6000612ebe8284612e81565b915081905092915050565b600060e082019050612ede600083018a6127d1565b8181036020830152612ef0818961290a565b9050612eff6040830188612943565b612f0c60608301876127d1565b8181036080830152612f1e818661290a565b9050612f2d60a08301856127d1565b612f3a60c0830184612961565b98975050505050505050565b7f4361727420697320656d70747900000000000000000000000000000000000000600082015250565b6000612f7c600d836128f9565b9150612f8782612f46565b602082019050919050565b60006020820190508181036000830152612fab81612f6f565b9050919050565b7f4e487b7100000000000000000000000000000000000000000000000000000000600052603260045260246000fd5b7f536f6d652061737365747320617265206e6f206c6f6e67657220617661696c6160008201527f626c650000000000000000000000000000000000000000000000000000000000602082015250565b600061303d6023836128f9565b915061304882612fe1565b604082019050919050565b6000602082019050818103600083015261306c81613030565b9050919050565b7f43616e6e6f742062757920796f7572206f776e20617373657400000000000000600082015250565b60006130a96019836128f9565b91506130b482613073565b602082019050919050565b600060208201905081810360008301526130d88161309c565b9050919050565b7f4e487b7100000000000000000000000000000000000000000000000000000000600052601160045260246000fd5b600061311982612286565b915061312483612286565b925082820190508082111561313c5761313b6130df565b5b92915050565b7f496e73756666696369656e742066756e64730000000000000000000000000000600082015250565b60006131786012836128f9565b915061318382613142565b602082019050919050565b600060208201905081810360008301526131a78161316b565b9050919050565b60006060820190506131c360008301866127d1565b6131d06020830185612943565b6131dd60408301846127d1565b949350505050565b60006131f082612286565b91507fffffffffffffffffffffffffffffffffffffffffffffffffffffffffffffffff8203613222576132216130df565b5b600182019050919050565b600061323882612286565b915061324383612286565b925082820390508181111561325b5761325a6130df565b5b92915050565b600061326c82612286565b915061327783612286565b925082820261328581612286565b9150828204841483151761329c5761329b6130df565b5b5092915050565b7f4173736574206973206e6f74206c697374656420666f722073616c6500000000600082015250565b60006132d9601c836128f9565b91506132e4826132a3565b602082019050919050565b60006020820190508181036000830152613308816132cc565b9050919050565b7f43616e6e6f742061646420796f7572206f776e20617373657420746f2063617260008201527f7400000000000000000000000000000000000000000000000000000000000000602082015250565b600061336b6021836128f9565b91506133768261330f565b604082019050919050565b6000602082019050818103600083015261339a8161335e565b9050919050565b60006040820190506133b660008301856127d1565b6133c36020830184612943565b9392505050565b7f4e487b7100000000000000000000000000000000000000000000000000000000600052603160045260246000fd5b7f4173736574206e6f7420666f756e6420696e2063617274000000000000000000600082015250565b600061342f6017836128f9565b915061343a826133f9565b602082019050919050565b6000602082019050818103600083015261345e81613422565b9050919050565b6000819050919050565b61348061347b82612286565b613465565b82525050565b60008160601b9050919050565b600061349e82613486565b9050919050565b60006134b082613493565b9050919050565b6134c86134c38261250d565b6134a5565b82525050565b60006134da828661346f565b6020820191506134ea82856134b7565b6014820191506134fa828461346f565b602082019150819050949350505050565b7f4e487b7100000000000000000000000000000000000000000000000000000000600052601260045260246000fd5b600061354582612286565b915061355083612286565b9250826135605761355f61350b565b5b828206905092915050565b7f5265656e7472616e637947756172643a207265656e7472616e742063616c6c00600082015250565b60006135a1601f836128f9565b91506135ac8261356b565b602082019050919050565b600060208201905081810360008301526135d081613594565b905091905056fea2646970667358221220c526441aa236c95c9e5a0b29769fd224aa5cbf6a310ec2d763e97e62d132fc3064736f6c634300081c0033",
  "linkReferences": {},
  "deployedLinkReferences": {}
}